:020000040800F2
:100000000050002099090008610800081114000838
:10001000670800086D080008730800080000000069
:100020000000000000000000000000002114000893
:100030007908000800000000351400084914000881
:10004000E1090008E1090008E1090008E1090008E8
:10005000E1090008E1090008E1090008E1090008D8
:10006000E1090008E1090008E1090008E1090008C8
:10007000E1090008E1090008E1090008E1090008B8
:10008000E1090008E1090008E1090008E1090008A8
:10009000E1090008E1090008E1090008E109000898
:1000A000E1090008E1090008E1090008E109000888
:1000B000E1090008E1090008E1090008E109000878
:1000C000E1090008E1090008E1090008E109000868
:1000D000E1090008E1090008E1090008E109000858
:1000E000E1090008E1090008E1090008000000003A
:1000F0000000000000000000000000000000000000
:0C01000000000000000000005FF808F1A3
:10010C0010B5054C237833B9044B13B10448AFF345
:10011C0000800123237010BDB000002000000000FF
:10012C002C37000808B5034B1BB103490348AFF348
:10013C00008008BD00000000B40000202C3700082F
:10014C0080F0004002E000BF81F0004142001FBF80
:10015C005FEA410392EA030F7FEA226C7FEA236C89
:10016C006AD04FEA1262D2EB1363C1BFD21841407E
:10017C0048404140B8BF5B42192B88BF704710F014
:10018C00004F40F4000020F07F4018BF404211F0B7
:10019C00004F41F4000121F07F4118BF494292EA1F
:1001AC00030F3FD0A2F1010241FA03FC10EB0C004B
:1001BC00C3F1200301FA03F100F0004302D54942D8
:1001CC0060EB4000B0F5000F13D3B0F1807F06D385
:1001DC0040084FEA310102F10102FE2A51D2B1F17D
:1001EC00004F40EBC25008BF20F0010040EA030072
:1001FC007047490040EB0000013A28BFB0F5000FF2
:10020C00EDD2B0FA80FCACF1080CB2EB0C0200FAA7
:10021C000CF0AABF00EBC25052421843BCBFD040F6
:10022C001843704792F0000F81F4000106BF80F470
:10023C0000000132013BB5E74FEA41037FEA226C33
:10024C0018BF7FEA236C21D092EA030F04D092F0FE
:10025C00000F08BF0846704790EA010F1CBF002032
:10026C00704712F07F4F04D1400028BF40F000408F
:10027C00704712F100723CBF00F50000704700F0AF
:10028C00004343F0FE4040F4000070477FEA2262D6
:10029C0016BF08467FEA23630146420206BF5FEAA7
:1002AC00412390EA010F40F4800070474FF00003A7
:1002BC0004E000BF10F0004348BF40425FEA000C6E
:1002CC0008BF704743F0964301464FF000001CE016
:1002DC0050EA010208BF70474FF000030AE000BF6C
:1002EC0050EA010208BF704711F0004302D54042AA
:1002FC0061EB41015FEA010C02BF8446014600201C
:10030C0043F0B64308BFA3F18053A3F50003BCFA36
:10031C008CF2083AA3EBC25310DB01FA02FC6344E3
:10032C0000FA02FCC2F12002BCF1004F20FA02F2EA
:10033C0043EB020008BF20F00100704702F12002DD
:10034C0001FA02FCC2F1200250EA4C0021FA02F23E
:10035C0043EB020008BF20EADC7070474FF0FF0C43
:10036C001CEAD0521EBF1CEAD15392EA0C0F93EA3E
:10037C000C0F6FD01A4480EA010C400218BF5FEAE0
:10038C0041211ED04FF0006343EA501043EA511153
:10039C00A0FB01310CF00040B1F5000F3EBF49004D
:1003AC0041EAD3715B0040EA010062F17F02FD2A51
:1003BC001DD8B3F1004F40EBC25008BF20F0010034
:1003CC00704790F0000F0CF0004C08BF49024CEA4B
:1003DC00502040EA51207F3AC2BFD2F1FF0340EADD
:1003EC00C250704740F400004FF00003013A5DDC4E
:1003FC0012F1190FDCBF00F000407047C2F100028F
:10040C00410021FA02F1C2F1200200FA02FC5FEA7B
:10041C00310040F1000053EA4C0308BF20EADC70C5
:10042C00704792F0000F00F0004C02BF400010F437
:10043C00000F013AF9D040EA0C0093F0000F01F0E4
:10044C00004C02BF490011F4000F013BF9D041EA06
:10045C000C018FE70CEAD15392EA0C0F18BF93EA08
:10046C000C0F0AD030F0004C18BF31F0004CD8D132
:10047C0080EA010000F00040704790F0000F17BFB9
:10048C0090F0004F084691F0000F91F0004F14D0FF
:10049C0092EA0C0F01D142020FD193EA0C0F03D157
:1004AC004B0218BF084608D180EA010000F000405A
:1004BC0040F0FE4040F40000704740F0FE4040F435
:1004CC00400070474FF0FF0C1CEAD0521EBF1CEAD4
:1004DC00D15392EA0C0F93EA0C0F69D0A2EB0302F2
:1004EC0080EA010C49024FEA402037D04FF080538C
:1004FC0043EA111143EA10130CF000408B4238BF51
:10050C005B0042F17D024FF4000C8B4224BF5B1A5E
:10051C0040EA0C00B3EB510F24BFA3EB510340EAAC
:10052C005C00B3EB910F24BFA3EB910340EA9C005A
:10053C00B3EBD10F24BFA3EBD10340EADC001B01CA
:10054C0018BF5FEA1C1CE0D1FD2A3FF650AF8B426E
:10055C0040EBC25008BF20F0010070470CF0004C7B
:10056C004CEA50207F32C2BFD2F1FF0340EAC250A6
:10057C00704740F400004FF00003013A37E792F067
:10058C00000F00F0004C02BF400010F4000F013AC5
:10059C00F9D040EA0C0093F0000F01F0004C02BFC0
:1005AC00490011F4000F013BF9D041EA0C0195E729
:1005BC000CEAD15392EA0C0F08D142027FF47DAFC2
:1005CC0093EA0C0F7FF470AF084676E793EA0C0FB2
:1005DC0004D14B023FF44CAF08466EE730F0004CB0
:1005EC0018BF31F0004CCAD130F000427FF45CAF40
:1005FC0031F000437FF43CAF5FE700BF4FEA4002AD
:10060C00B2F1FE4F0FD34FF09E03B3EB12620DD934
:10061C004FEA002343F0004310F0004F23FA02F09E
:10062C0018BF404270474FF00000704712F1610F45
:10063C0001D1420205D110F0004008BF6FF000401C
:10064C0070474FF00000704780B500AF00F0FEFF20
:10065C0000F007F800F074F800F048F800F0A8FF7C
:10066C00FEE780B590B000AF07F1180328220021F7
:10067C00184602F0C3FA3B1D00221A605A609A60B9
:10068C00DA601A610123BB614FF48033FB610023F4
:10069C003B620123BB6202237B634FF48033BB6359
:1006AC004FF4E013FB6307F11803184601F0BCFA92
:1006BC000346002B01D000F065F80F237B6002236A
:1006CC00BB600023FB604FF480633B6100237B61C4
:1006DC003B1D0221184601F029FD0346002B01D0D9
:1006EC0000F050F800BF4037BD4680BD80B500AF6C
:1006FC00114B124A1A60104B4FF4E1325A600E4BF8
:10070C0000229A600C4B0022DA600B4B00221A611B
:10071C00094B0C225A61084B00229A61064B0022AD
:10072C00DA61054801F090FE0346002B01D000F081
:10073C0029F800BF80BD00BFCC000020003801406C
:10074C0080B483B000AF0E4B9B690D4A43F020037D
:10075C0093610B4B9B6903F020037B607B68084B18
:10076C009B69074A43F004039361054B9B6903F0B3
:10077C0004033B603B6800BF0C37BD4680BC704730
:10078C000010024080B400AF72B600BFFEE700005C
:10079C0080B483B000AF0E4B9B690D4A43F001034C
:1007AC0093610B4B9B6903F001037B607B68084BE7
:1007BC00DB69074A43F08053D361054BDB6903F0D7
:1007CC0080533B603B6800BF0C37BD4680BC704714
:1007DC000010024080B588B000AF786007F11003BC
:1007EC0000221A605A609A60DA607B681B68164AAD
:1007FC00934224D1154B9B69144A43F48043936173
:10080C00124B9B6903F48043FB60FB680F4B9B69A5
:10081C000E4A43F0040393610C4B9B6903F00403F1
:10082C00BB60BB684FF400733B6112237B610323F5
:10083C00FB6107F110031946054801F071F800BF80
:10084C002037BD4680BD00BF00380140001002407B
:10085C000008014080B400AFFEE780B400AFFEE7B3
:10086C0080B400AFFEE780B400AFFEE780B400AF09
:10087C0000BFBD4680BC704780B586B000AFF86045
:10088C00B9607A6000237B610AE0AFF30080014617
:10089C00BB685A1CBA60CAB21A707B6901337B619F
:1008AC007A697B689A42F0DB7B6818461837BD463C
:1008BC0080BD80B483B000AF78604FF0FF33184632
:1008CC000C37BD4680BC704780B483B000AF7860F5
:1008DC0039603B684FF400525A60002318460C37BD
:1008EC00BD4680BC704780B483B000AF78600123F4
:1008FC0018460C37BD4680BC704780B485B000AF3D
:10090C00F860B9607A60002318461437BD4680BC85
:10091C007047000080B586B000AF7860144A154B64
:10092C00D31A7B617B693B61134B1B68002B02D193
:10093C00114B124A1A60104B1A687B6813443A69BF
:10094C009A4207D202F0A8F903460C221A604FF023
:10095C00FF3309E0084B1B68FB60074B1A687B6888
:10096C001344054A1360FB6818461837BD4680BD12
:10097C00005000200004000014010020581000203A
:10098C0080B400AF00BFBD4680BC7047FFF7F8FFD6
:10099C000B480C490C4A002302E0D458C4500433D1
:1009AC00C4188C42F9D3094A094C002301E01360A6
:1009BC000432A242FBD302F075F9FFF745FE7047F3
:1009CC0000000020B000002024380008B0000020F7
:1009DC0058100020FEE7000080B483B000AF03463F
:1009EC003960FB7197F90730002B0ADB3B68DAB2F0
:1009FC000C4997F907301201D2B20B4483F800234B
:100A0C000AE03B68DAB20849FB7903F00F03043BB8
:100A1C001201D2B20B441A7600BF0C37BD4680BC13
:100A2C00704700BF00E100E000ED00E080B400AFD3
:100A3C00044B00221A60034B1B680133014A1360FC
:100A4C00F9E700BFEC02002080B487B000AFF8607B
:100A5C00B9607A603B60FB687B61FB68D8B268491F
:100A6C007A6913469B001344DB000B4402461A7050
:100A7C0063497A6913469B001344DB000B4404332F
:100A8C007A681A605E497A6913469B001344DB004E
:100A9C000B4408333A681A6059497A6913469B002B
:100AAC001344DB000B441433BA681A6054497A6956
:100ABC0013469B001344DB000B44103301221A70C5
:100ACC004F497A6913469B001344DB000B441C33DB
:100ADC003A6A1A604A497A6913469B001344DB0050
:100AEC000B4420337A6A1A6045497A6913469B0095
:100AFC001344DB000B44243300221A603B689B0038
:100B0C007A6813443B613B69043B3B613B694FF0A2
:100B1C0080721A603B69043B3B61BA683B691A609E
:100B2C003B69043B3B613B696FF002021A603B6915
:100B3C00043B3B613B694FF012321A603B69043B4A
:100B4C003B613B694FF003321A603B69043B3B61EC
:100B5C003B694FF002321A603B69043B3B617A6A95
:100B6C003B691A603B69043B3B613A6A3B691A601A
:100B7C003B69043B3B613B694FF011321A603B69A6
:100B8C00043B3B613B694FF010321A603B69043BFC
:100B9C003B613B694FF009321A603B69043B3B6196
:100BAC003B694FF008321A603B69043B3B613B697F
:100BBC004FF007321A603B69043B3B613B694FF0D5
:100BCC0006321A603B69043B3B613B694FF00532CE
:100BDC001A603B69043B3B613B694FF004321A607D
:100BEC00396907487A6913469B001344DB000344B8
:100BFC000C33196000BF1C37BD4680BC704700BF6A
:100C0C001801002080B588B002AFF860B9607A6036
:100C1C003B60184B01221A7001237B610DE01649D1
:100C2C007A6913469B001344DB000B441B78DBB240
:100C3C00002B06D07B6901337B617B69042BEEDDD5
:100C4C0000E000BF7B69042B02DD4FF0FF330DE0A9
:100C5C003B6A01933B6800937B68BA68F9687869D2
:100C6C00FFF7F2FE034B00221A707B691846183707
:100C7C00BD4680BDE40100201801002080B586B07F
:100C8C0002AF002301930023009340232F4A3049E5
:100C9C000020FFF7D9FEFF216FF00100FFF79CFE4B
:100CAC002C4B00221A600123FB6011E02A49FA68E0
:100CBC0013469B001344DB000B441B78DBB2002B68
:100CCC0003D0244AFB68136005E0FB680133FB602A
:100CDC00FB68042BEADD1F4B1A681F4913469B0067
:100CEC001344DB000B440C331B68BB60BB68184619
:100CFC0080F30988EFF3148040F0020080F314882D
:100D0C00EFF3148040F0010080F31488BB68383393
:100D1C001B687B600F4B1A680F4913469B001344EA
:100D2C00DB000B441C3318680A4B1A680A4913463B
:100D3C009B001344DB000B4420331A687B6811467C
:100D4C00984700BF1037BD4680BD00BFEC010020A6
:100D5C00390A00080400002018010020F0B585B005
:100D6C0002AF764B1B78DBB2002B40F0E280744B69
:100D7C001B78DBB2002B40F0DC8000F0BFFC02469D
:100D8C00704B1B68D31A6F4A13606E4B19686E4B0D
:100D9C001A686E4813469B001344DB00034424334B
:100DAC001B681944694813469B001344DB00034439
:100DBC0024331960664B00221A60A8E0624B1B6852
:100DCC00591C644B83FB01235A10CB17D21A1346C0
:100DDC009B001344CA1A5C4B1A605B4B1A685B4944
:100DEC0013469B001344DB000B441B78DBB2002B37
:100DFC0000F0838000F082FC0146534B1A68534884
:100E0C0013469B001344DB00034418331B689942C0
:100E1C0075D94D4B1A684D4913469B001344DB00A2
:100E2C000B4410331B78DBB2022B0AD1464B1A68E9
:100E3C00464913469B001344DB000B4400221A70F6
:100E4C0060E0414B1A68414913469B001344DB0098
:100E5C000B4410331B78DBB2032B3DD13A4B186893
:100E6C00394B1A68394913469B001344DB000B4479
:100E7C0014331C68344B1A68344913469B001344D2
:100E8C00DB000B4404331D682F4B1A682F491346A3
:100E9C009B001344DB000B4408331E682A4B1A6872
:100EAC002A4913469B001344DB000B441C3319687E
:100EBC00254B1A68254B7B6013469B001344DB00C3
:100ECC007A68134420331B680193009133462A46F9
:100EDC002146FFF7B9FD0CE01B4B1A681B49134662
:100EEC009B001344DB000B4410331B78DBB2002B4C
:100EFC0007D0174B00221A600EE000BF02E000BFC3
:100F0C0000E000BF124B1B680133114A1360104BF9
:100F1C001B68052B7FF752AF0D4B1B68002B02DDB6
:100F2C00094B00221A6000F0E9FB0346054A1360E6
:100F3C0000E000BF0C37BD46F0BD00BFE40100204F
:100F4C00E5010020E8010020040000201801002029
:100F5C00E00100206766666680B400AF064B1B6834
:100F6C00002B05DB054B5B68044A43F08053536050
:100F7C0000BFBD4680BC70470400002000ED00E0BF
:100F8C00BDE8804000B5EFF3098020E9F00F104B6D
:100F9C001A6801460F4813469B001344DB000344B8
:100FAC000C331960FFF7DAFE094B1A68094913462E
:100FBC009B001344DB000B440C331B681846B0E851
:100FCC00F00F80F309885DF804EB00BF704700BF99
:100FDC00040000201801002080B400AF00DF00BF27
:100FEC00BD4680BC7047000080B400AF064B1B6848
:100FFC00002B05DB054B5B68044A43F080535360C0
:10100C0000BFBD4680BC70470400002000ED00E02E
:10101C0080B582B000AF7860154B01221A707B68E6
:10102C00002B02D1134B1B687B607B68002B0CDD03
:10103C007B68042B09DC10497A6813469B00134427
:10104C00DB000B44103302221A70094B00221A7079
:10105C007B68002B04D1074B1B687A689A4202D13B
:10106C00FFF7BAFF00E000BF0837BD4680BD00BFE8
:10107C00E4010020040000201801002080B582B09B
:10108C0000AF7860154B01221A707B68002B02D1DF
:10109C00134B1B687B607B68002B0CDD7B68042B7F
:1010AC0009DC10497A6813469B001344DB000B449F
:1010BC00103303221A70094B00221A707B68002B24
:1010CC0004D1074B1B687A689A4202D1FFF784FF60
:1010DC0000E000BF0837BD4680BD00BFE401002022
:1010EC00040000201801002080B582B000AF7860A9
:1010FC00154B01221A707B68002B02D1134B1B6815
:10110C007B607B68002B0CDD7B68042B09DC1049B1
:10111C007A6813469B001344DB000B441033002207
:10112C001A70094B00221A707B68002B04D1074BF4
:10113C001B687A689A4202D1FFF74EFF00E000BFAD
:10114C000837BD4680BD00BFE4010020040000202C
:10115C001801002080B483B000AF78600D4B0122E1
:10116C001A707B68002B0CDD7B68042B09DC0A49A8
:10117C007A6813469B001344DB000B4410330122A6
:10118C001A70044B00221A7000BF0C37BD4680BC8D
:10119C00704700BFE40100201801002090B583B017
:1011AC0000AF7860194B01221A70194B1B68002B89
:1011BC0012DD174B1B68042B0EDC00F09FFA014666
:1011CC00134B1A687B681944124813469B0013444E
:1011DC00DB000344183319600C4B00221A70FFF724
:1011EC00FBFE00BF0A4B1A680A4913469B001344C6
:1011FC00DB000B4418331C6800F080FA03469C4259
:10120C00F0D800BF00BF0C37BD4690BDE4010020F4
:10121C0004000020180100200FB480B582B000AF8C
:10122C00094B01221A7007F114037B607968386945
:10123C0001F044FC044B00221A7000BF0837BD4675
:10124C00BDE8804004B07047E401002080B400AFDA
:10125C00034B01221A7000BFBD4680BC704700BF13
:10126C00E501002080B400AF034B00221A7000BFD0
:10127C00BD4680BC704700BFE501002080B582B040
:10128C0000AF7860124B01221A707B68002B16D0CD
:10129C00104B1B68002B12DD0E4B1B68042B0EDC55
:1012AC000C4B1A687B681A600A4B1A680A49134679
:1012BC009B001344DB000B44103300221A70044BC8
:1012CC0000221A70FFF788FE00BF0837BD4680BDAC
:1012DC00E4010020040000201801002080B483B039
:1012EC0000AF78600D4B01221A707B68002B0CDD6F
:1012FC007B68042B09DC0A497A6813469B0013446B
:10130C00DB000B44103301221A70044B00221A70BC
:10131C0000BF0C37BD4680BC704700BFE401002005
:10132C001801002090B585B000AF224B01221A7035
:10133C00214B5B6AFB600123BB6019E01E49BA6854
:10134C0013469B001344DB000B441B78DBB2002BD1
:10135C000BD01949BA6813469B001344DB000B44AD
:10136C0024331B68FA681344FB60BB680133BB6011
:10137C00BB68042BE2DD104B5B6A1846FEF796FF48
:10138C000446F868FEF792FF034619462046FFF71D
:10139C0099F8034619464FF07E50FEF7D5FE0346EA
:1013AC007B60044B00221A707B6818461437BD46CC
:1013BC0090BD00BFE40100201801002080B500AFF3
:1013CC00FFF70AFE00BF80BD80B584B000AFF860A7
:1013DC00B9607A60094B1B6A98477B689AB24FF0E8
:1013EC00FF33B968064801F087F8044B5B6A9847ED
:1013FC007B6818461037BD4680BD00BF0800002032
:10140C00CC00002080B500AF014801F00BFBFEE7DB
:10141C004437000880B500AF024B9B6B984700BF68
:10142C0080BD00BF0800002080B500AF024B1B6CD4
:10143C00984700BF80BD00BF0800002080B500AFFA
:10144C0000F04AF9024BDB6B984700BF80BD00BF30
:10145C000800002090B583B000AF78603960144B61
:10146C00DC693B687A6813491348A047104B1B6A28
:10147C009847124B124A92E8030018600433198003
:10148C000B4B9B694FF47A7098470C4B0A229A606D
:10149C00074BDB69094A926808490A489847044B8C
:1014AC005B6A9847024B9B690A209847DEE700BFAE
:1014BC0008000020B437000850370008FC0E00204C
:1014CC00643700086C37000890B583B000AF7860C3
:1014DC003960144BDC693B687A6813491348A047A0
:1014EC00104B1B6A9847124B124A92E80300186083
:1014FC00043319800B4B9B694FF47A7098470C4B53
:10150C0014229A60074BDB69094A926808490A4819
:10151C009847044B5B6A9847024B9B690A20984793
:10152C00DEE700BF08000020BC3700085037000879
:10153C00FC0E0020783700086C37000890B583B09B
:10154C0000AF78603960134BDC693B687A681249EC
:10155C001248A0470F4BDC690E4B1B6B9847034698
:10156C000F491846FEF7FAFE03461846FFF746F8F1
:10157C00034619460B48A047064BDB690A4A92689A
:10158C0009490A489847034B9B694FF47A7098476E
:10159C00E0E700BF08000020C437000850370008FF
:1015AC000000C84280370008FC0E00206C37000891
:1015BC0090B583B002AF1A4801F034FA4FF47A7048
:1015CC0000F0A6F8174B1C680023009300234FF47F
:1015DC00807215491548A0470346154A1360114BF4
:1015EC001C680023009300234FF4807211491248A9
:1015FC00A0470346114A13600A4B1C680023009352
:10160C0000234FF480720E490E48A04703460E4A41
:10161C001360044B5B68984700BF0437BD4690BD10
:10162C008C37000808000020FC0200206114000820
:10163C00F0020020FC060020D5140008F402002063
:10164C00FC0A002049150008F802002080B500AF04
:10165C00084B1B68074A43F010031360032000F08B
:10166C002BF90F2000F008F8FFF792F8002318462A
:10167C0080BD00BF0020024080B582B000AF786012
:10168C00124B1A68124B1B7819464FF47A73B3FB42
:10169C00F1F3B2FBF3F3184600F035F90346002BD7
:1016AC0001D001230EE07B680F2B0AD80022796849
:1016BC004FF0FF3000F00BF9064A7B6813600023F3
:1016CC0000E0012318460837BD4680BD000000200D
:1016DC00500000204C00002080B400AF054B1B785C
:1016EC001A46054B1B681344034A136000BFBD46E2
:1016FC0080BC704750000020080F002080B400AF61
:10170C00024B1B681846BD4680BC7047080F002072
:10171C0080B584B000AF7860FFF7F0FFB8607B68ED
:10172C00FB60FB68B3F1FF3F05D00A4B1B781A46F0
:10173C00FB681344FB6000BFFFF7E0FF0246BB6889
:10174C00D31AFA689A42F7D800BF00BF1037BD46CB
:10175C0080BD00BF5000002080B485B000AF786021
:10176C007B6803F00703FB600C4BDB68BB60BA685B
:10177C004FF6FF031340BB60FB681A02BB681343B0
:10178C0043F0BF6343F40033BB60044ABB68D360CF
:10179C0000BF1437BD4680BC704700BF00ED00E0B1
:1017AC0080B400AF044BDB681B0A03F00703184638
:1017BC00BD4680BC704700BF00ED00E080B483B034
:1017CC0000AF03463960FB7197F90730002B0ADB39
:1017DC003B68DAB20C4997F907301201D2B20B44CC
:1017EC0083F800230AE03B68DAB20849FB7903F07E
:1017FC000F03043B1201D2B20B441A7600BF0C3714
:10180C00BD4680BC704700BF00E100E000ED00E089
:10181C0080B489B000AFF860B9607A60FB6803F0FF
:10182C000703FB61FB69C3F10703042B28BF0423E7
:10183C00BB61FB690433062B02D9FB69033B00E057
:10184C0000237B614FF0FF32BB6902FA03F3DA43EA
:10185C00BB681A407B699A404FF0FF317B6901FAF3
:10186C0003F3D9437B680B40134318462437BD461A
:10187C0080BC704780B582B000AF78607B68013B5C
:10188C00B3F1807F01D301230FE00A4A7B68013B4F
:10189C0053600F214FF0FF30FFF790FF054B0022F4
:1018AC009A60044B07221A60002318460837BD467D
:1018BC0080BD00BF10E000E080B582B000AF786062
:1018CC007868FFF749FF00BF0837BD4680BD80B57B
:1018DC0086B000AF0346B9607A60FB7300237B616E
:1018EC00FFF75EFF78617A68B9687869FFF790FF57
:1018FC00024697F90F3011461846FFF75FFF00BFFD
:10190C001837BD4680BD80B582B000AF786078686E
:10191C00FFF7B0FF034618460837BD4680BD0000F0
:10192C0080B48BB000AF7860396000237B620023F9
:10193C003B6269E101227B6A02FA03F3FB613B68BB
:10194C001B68FA691340BB61BA69FB699A4240F0A3
:10195C0058813B685B689A4A93425ED0984A93429E
:10196C0075D8984A934258D0964A93426FD8964A63
:10197C00934252D0944A934269D8944A93424CD0A1
:10198C00924A934263D8924A934246D0904A9342E9
:10199C005DD8122B2AD8122B59D801A252F823F059
:1019AC00271A0008011A0008131A0008551A000813
:1019BC005B1A00085B1A00085B1A00085B1A000827
:1019CC005B1A00085B1A00085B1A00085B1A000817
:1019DC005B1A00085B1A00085B1A00085B1A000807
:1019EC005B1A0008091A00081D1A0008794A93426C
:1019FC0013D02CE03B68DB683B6229E03B68DB687A
:101A0C0004333B6224E03B68DB6808333B621FE035
:101A1C003B68DB680C333B621AE03B689B68002B2D
:101A2C0002D104233B6213E03B689B68012B05D178
:101A3C0008233B627B68FA691A6109E008233B6260
:101A4C007B68FA695A6103E000233B6200E000BF47
:101A5C00BB69FF2B01D87B6801E07B6804337B6199
:101A6C00BB69FF2B02D87B6A9B0002E07B6A083BB8
:101A7C009B003B617B691A680F213B6901FA03F3F8
:101A8C00DB431A40396A3B6901FA03F31A437B6959
:101A9C001A603B685B6803F08053002B00F0B18048
:101AAC004D4B9B694C4A43F0010393614A4B9B6934
:101ABC0003F00103BB60BB68484A7B6A9B08023396
:101ACC0052F82330FB607B6A03F003039B000F2268
:101ADC0002FA03F3DB43FA681340FB607B68404A6D
:101AEC00934213D07B683F4A93420DD07B683E4AA9
:101AFC00934207D07B683D4A934201D1032306E011
:101B0C00042304E0022302E0012300E000237A6AAC
:101B1C0002F0030292009340FA681343FB602F49D2
:101B2C007B6A9B080233FA6841F823203B685B68A8
:101B3C0003F48013002B06D02D4B9A682C49BB69FB
:101B4C0013438B6006E02A4B9A68BB69DB43284938
:101B5C0013408B603B685B6803F40013002B06D0CA
:101B6C00234BDA682249BB691343CB6006E0204B58
:101B7C00DA68BB69DB431E491340CB603B685B688A
:101B8C0003F40033002B06D0194B5A681849BB6973
:101B9C0013434B6006E0164B5A68BB69DB43144990
:101BAC0013404B603B685B6803F48033002B21D0FF
:101BBC000F4B1A680E49BB6913430B6021E000BF41
:101BCC000000321000003110000022100000211023
:101BDC000000121000001110001002400000014023
:101BEC0000080140000C01400010014000140140AD
:101BFC00000401400B4B1A68BB69DB4309491340D5
:101C0C000B607B6A01337B623B681A687B6A22FA41
:101C1C0003F3002B7FF48EAE00BF00BF2C37BD4604
:101C2C0080BC70470004014080B586B000AF78607E
:101C3C007B68002B01D1012372E27B681B6803F0E7
:101C4C000103002B00F08780924B5B6803F00C03C0
:101C5C00042B0CD08F4B5B6803F00C03082B12D1B8
:101C6C008C4B5B6803F48033B3F5803F0BD1894B0D
:101C7C001B6803F40033002B6CD07B685B68002B73
:101C8C0068D101234CE27B685B68B3F5803F06D1D9
:101C9C00804B1B687F4A43F4803313602EE07B68D3
:101CAC005B68002B0CD17B4B1B687A4A23F4803386
:101CBC001360784B1B68774A23F4802313601DE074
:101CCC007B685B68B3F5A02F0CD1724B1B68714A13
:101CDC0043F4802313606F4B1B686E4A43F48033CC
:101CEC0013600BE06B4B1B686A4A23F48033136060
:101CFC00684B1B68674A23F4802313607B685B681E
:101D0C00002B13D0FFF7FAFC386108E0FFF7F6FC64
:101D1C0002463B69D31A642B01D9032300E25D4BC5
:101D2C001B6803F40033002BF0D014E0FFF7E6FC43
:101D3C00386108E0FFF7E2FC02463B69D31A642BDA
:101D4C0001D90323ECE1534B1B6803F40033002B44
:101D5C00F0D100E000BF7B681B6803F00203002B8E
:101D6C0063D04C4B5B6803F00C03002B0BD0494B3E
:101D7C005B6803F00C03082B1CD1464B5B6803F427
:101D8C008033002B16D1434B1B6803F00203002B4E
:101D9C0005D07B681B69012B01D00123C0E13D4BB1
:101DAC001B6823F0F8027B685B69DB00394913433D
:101DBC000B603AE07B681B69002B20D0364B01226C
:101DCC001A60FFF79BFC386108E0FFF797FC0246AE
:101DDC003B69D31A022B01D90323A1E12D4B1B68BC
:101DEC0003F00203002BF0D02A4B1B6823F0F802FF
:101DFC007B685B69DB00274913430B6015E0264BBE
:101E0C0000221A60FFF77AFC386108E0FFF776FCD5
:101E1C0002463B69D31A022B01D9032380E11D4BE7
:101E2C001B6803F00203002BF0D17B681B6803F0E6
:101E3C000803002B3AD07B689B69002B19D0174BF9
:101E4C0001221A60FFF75AFC386108E0FFF756FCD4
:101E5C0002463B69D31A022B01D9032360E10D4BD7
:101E6C005B6A03F00203002BF0D0012000F0CEFAE5
:101E7C001CE00A4B00221A60FFF740FC38610FE0AF
:101E8C00FFF73CFC02463B69D31A022B08D903230B
:101E9C0046E100BF00100240000042428004424272
:101EAC00924B5B6A03F00203002BE9D17B681B6841
:101EBC0003F00403002B00F0A6800023FB758B4B72
:101ECC00DB6903F08053002B0DD1884BDB69874A0B
:101EDC0043F08053D361854BDB6903F08053BB60C7
:101EEC00BB680123FB75824B1B6803F48073002BCA
:101EFC0018D17F4B1B687E4A43F480731360FFF745
:101F0C00FDFB386108E0FFF7F9FB02463B69D31A89
:101F1C00642B01D9032303E1754B1B6803F4807315
:101F2C00002BF0D07B68DB68012B06D16F4B1B6A52
:101F3C006E4A43F0010313622DE07B68DB68002BD3
:101F4C000CD16A4B1B6A694A23F001031362674B7D
:101F5C001B6A664A23F0040313621CE07B68DB688F
:101F6C00052B0CD1614B1B6A604A43F004031362CE
:101F7C005E4B1B6A5D4A43F0010313620BE05B4B43
:101F8C001B6A5A4A23F001031362584B1B6A574AC7
:101F9C0023F0040313627B68DB68002B15D0FFF77A
:101FAC00ADFB38610AE0FFF7A9FB02463B69D31A87
:101FBC0041F28832934201D90323B1E04B4B1B6AA7
:101FCC0003F00203002BEED014E0FFF797FB38610F
:101FDC000AE0FFF793FB02463B69D31A41F28832C1
:101FEC00934201D903239BE0404B1B6A03F002038D
:101FFC00002BEED1FB7D012B05D13C4BDB693B4A21
:10200C0023F08053D3617B68DB69002B00F0878061
:10201C00364B5B6803F00C03082B61D07B68DB69E3
:10202C00022B46D1334B00221A60FFF767FB386155
:10203C0008E0FFF763FB02463B69D31A022B01D978
:10204C0003236DE0294B1B6803F00073002BF0D1C8
:10205C007B681B6AB3F5803F08D1244B5B6823F483
:10206C0000327B689B68214913434B601F4B5B68B4
:10207C0023F474127B68196A7B685B6A0B431B49F7
:10208C0013434B601B4B01221A60FFF737FB38617F
:10209C0008E0FFF733FB02463B69D31A022B01D948
:1020AC0003233DE0114B1B6803F00073002BF0D0B1
:1020BC0035E0104B00221A60FFF720FB386108E076
:1020CC00FFF71CFB02463B69D31A022B01D90323F1
:1020DC0026E0064B1B6803F00073002BF0D11EE0CA
:1020EC007B68DB69012B07D1012319E0001002404A
:1020FC0000700040600042420B4B5B68FB60FB6869
:10210C0003F480327B681B6A9A4206D1FB6803F4A5
:10211C0070127B685B6A9A4201D0012300E00023B5
:10212C0018461837BD4680BD0010024080B584B0FB
:10213C0000AF786039607B68002B01D10123D0E0BF
:10214C006A4B1B6803F007033A689A4210D9674B35
:10215C001B6823F0070265493B6813430B60634B14
:10216C001B6803F007033A689A4201D00123B8E0D8
:10217C007B681B6803F00203002B20D07B681B6874
:10218C0003F00403002B05D0594B5B68584A43F409
:10219C00E06353607B681B6803F00803002B05D0D9
:1021AC00534B5B68524A43F460535360504B5B682B
:1021BC0023F0F0027B689B684D4913434B607B68AE
:1021CC001B6803F00103002B40D07B685B68012B7C
:1021DC0007D1474B1B6803F40033002B15D10123A7
:1021EC007FE07B685B68022B07D1414B1B6803F0D7
:1021FC000073002B09D1012373E03D4B1B6803F0E6
:10220C000203002B01D101236BE0394B5B6823F0F7
:10221C0003027B685B68364913434B60FFF76EFA29
:10222C00F8600AE0FFF76AFA0246FB68D31A41F23B
:10223C008832934201D9032353E02D4B5B6803F0A2
:10224C000C027B685B689B009A42EBD1274B1B68A6
:10225C0003F007033A689A4210D2244B1B6823F010
:10226C00070222493B6813430B60204B1B6803F0A9
:10227C0007033A689A4201D0012332E07B681B685D
:10228C0003F00403002B08D0194B5B6823F4E062C5
:10229C007B68DB68164913434B607B681B6803F053
:1022AC000803002B09D0124B5B6823F460527B6847
:1022BC001B69DB000E4913434B6000F021F802460A
:1022CC000B4B5B681B0903F00F030A49CB5C22FA2A
:1022DC0003F3094A1360094B1B681846FFF7CCF946
:1022EC00002318461037BD4680BD00BF00200240B9
:1022FC00001002409C370008000000204C00002019
:10230C0080B487B000AF0023FB600023BB600023C8
:10231C007B6100237B6000233B611E4B5B68FB6091
:10232C00FB6803F00C03042B02D0082B03D027E02E
:10233C00194B3B6127E0FB689B0C03F00F03174A1A
:10234C00D35C7B60FB6803F48033002B10D0114B03
:10235C005B685B0C03F00103114AD35CBB607B68C8
:10236C000D4A03FB02F2BB68B2FBF3F37B6104E0A2
:10237C007B680C4A02FB03F37B617B693B6102E0E7
:10238C00054B3B6100BF3B6918461C37BD4680BC02
:10239C00704700BF0010024000127A00D4370008CA
:1023AC00E437000800093D0080B400AF024B1B6805
:1023BC001846BD4680BC70470000002080B500AFB9
:1023CC00FFF7F2FF0246054B5B681B0A03F007039D
:1023DC000349CB5C22FA03F3184680BD001002407F
:1023EC00AC37000880B500AFFFF7DEFF0246054BA7
:1023FC005B68DB0A03F007030349CB5C22FA03F3A7
:10240C00184680BD00100240AC37000880B485B07F
:10241C0000AF78600A4B1B680A4AA2FB03235B0AD5
:10242C007A6802FB03F3FB6000BFFB685A1EFA607C
:10243C00002BF9D100BF00BF1437BD4680BC7047DC
:10244C0000000020D34D621080B582B000AF7860E0
:10245C007B68002B01D101234AE07B6893F8413063
:10246C00DBB2002B06D17B68002283F84020786811
:10247C00FEF7B0F97B68242283F841207B681B6847
:10248C00DA687B681B6822F40052DA60786800F026
:10249C0025F97B681B681A697B681B6822F49042DB
:1024AC001A617B681B685A697B681B6822F02202E0
:1024BC005A617B681B685A697B681B6842F008028A
:1024CC005A617B681B68DA687B681B6842F40052AF
:1024DC00DA607B6800225A647B68202283F84120F2
:1024EC007B68202283F842207B6800225A630023F9
:1024FC0018460837BD4680BD80B58AB002AFF8607B
:10250C00B9603B601346FB8000237B61FB6893F84A
:10251C004130DBB2202B6DD1BB68002B02D0FB8885
:10252C00002B01D1012366E0FB6800225A64FB6892
:10253C00212283F84120FFF7E1F87861FB68FA88E3
:10254C009A84FB68FA88DA84FB689B68B3F5805F31
:10255C0008D1FB681B69002B04D10023FB61BB680D
:10256C00BB6103E0BB68FB610023BB612AE03B68F5
:10257C0000937B6900228021F86800F040F8034644
:10258C00002B01D0032336E0FB69002B0BD1BB6978
:10259C001B881A46FB681B68C2F308025A60BB69A9
:1025AC000233BB6107E0FB691A78FB681B685A6051
:1025BC00FB690133FB61FB68DB8C9BB2013B9AB27C
:1025CC00FB68DA84FB68DB8C9BB2002BCFD13B68B9
:1025DC0000937B6900224021F86800F010F8034654
:1025EC00002B01D0032306E0FB68202283F8412056
:1025FC00002300E0022318462037BD4680BD80B57D
:10260C0090B000AFF860B9603B601346FB7150E0CE
:10261C00BB6CB3F1FF3F4CD0BB6C002B07D0FFF76A
:10262C006DF802463B68D31ABA6C9A4241D2FB68E9
:10263C001B680C33BB62BB6A53E8003F7B627B6A4E
:10264C0023F4D073FB63FB681B680C33FA6B7A635F
:10265C003B63396B7A6B41E80023FB62FB6A002B0E
:10266C00E5D1FB681B6814337B617B6953E8003F41
:10267C003B613B6923F00103BB63FB681B681433AC
:10268C00BA6B3A62FB61F9693A6A41E80023BB61B3
:10269C00BB69002BE5D1FB68202283F84120FB6845
:1026AC00202283F84220FB68002283F84020032379
:1026BC000FE0FB681B681A68BB681340BA689A4243
:1026CC000CBF01230023DBB21A46FB799A429FD040
:1026DC00002318464037BD4680BD000080B584B04D
:1026EC0000AF78607B681B681B6923F440517B68E2
:1026FC00DA687B681B680A431A617B689A687B6896
:10270C001B691A437B685B691343BB607B681B685E
:10271C00DB6823F4B05323F00C037A681268B968B1
:10272C000B43D3607B681B685B6923F440717B6847
:10273C009A697B681B680A435A617B681B682C4A40
:10274C00934203D1FFF74EFEF86002E0FFF736FE2E
:10275C00F860FA6813469B0013449A001A447B688D
:10276C005B689B00B2FBF3F3224AA2FB03235B09D9
:10277C001901FA6813469B0013449A001A447B68AB
:10278C005B689B00B2FBF3F21A4BA3FB02035B09E1
:10279C00642000FB03F3D31A1B013233154AA2FB4E
:1027AC0003235B0903F0F0031944FA6813469B00FA
:1027BC0013449A001A447B685B689B00B2FBF3F2EB
:1027CC000C4BA3FB02035B09642000FB03F3D31A3D
:1027DC001B013233074AA2FB03235B0903F00F02F0
:1027EC007B681B680A449A6000BF1037BD4680BDE9
:1027FC00003801401F85EB51002310B50446C0E999
:10280C000033C0E90433836081814366C2818361F4
:10281C00194608225C3000F0F1F90D4B246263621A
:10282C000C4BA3620C4BE3620C4B23630C4B9C4292
:10283C0006D003F16802944202D0D0339C4205D1F9
:10284C0004F15800BDE8104000F050BA10BD00BFB4
:10285C00412A0008632A00089B2A0008BF2A0008A6
:10286C000C0F0020024A0349034800F069B800BF6E
:10287C0054000020993500086000002041680C4B82
:10288C0010B59942044601D000F080FEA168094BB6
:10289C00994202D0204600F079FEE168064B99423D
:1028AC0004D02046BDE8104000F070BE10BD00BF43
:1028BC000C0F0020740F0020DC0F002010B50B4B08
:1028CC000B4C0C4A20461A6004210022FFF794FF9F
:1028DC0004F1680001220921FFF78EFF04F1D000FA
:1028EC000222BDE810401221FFF786BF44100020E1
:1028FC000C0F002071280008014800F0F8B900BF47
:10290C004D100020014800F0F3B900BF4D1000201D
:10291C0010B50446FFF7F0FF236A1BB1BDE8104069
:10292C00FFF7F0BF044B2362044B1B68002BF5D15F
:10293C00FFF7C4FFF2E700BF89280008441000200D
:10294C002DE9F8430746884614460026D4E901953C
:10295C00B9F1010905D52468002CF7D13046BDE842
:10296C00F883AB89012B07D9B5F90E30013303D0AD
:10297C0029463846C04706436835E9E7036A70B50F
:10298C0005460E4684680BB9FFF7C2FF636EDB0782
:10299C0005D4A389980502D4A06D00F0A8F9A389E9
:1029AC00190713D523698BB1013EA36816F8011FD3
:1029BC00013BA360E9B9002B2EDA22460A212846F6
:1029CC0000F086F8013007D00A2507E0214628469A
:1029DC0000F0BCF80028E7D04FF0FF35636EDA0743
:1029EC0005D4A3899B0502D4A06D00F081F928467B
:1029FC0070BD002B04DAA2699A4206DC0A2904D0C5
:102A0C0023685A1C22601970CFE72246284600F032
:102A1C005FF80130C9D1DFE70A2523685A1C226010
:102A2C001D70DBE7024B01461868FFF7A7BF00BF1C
:102A3C00AC00002010B50C46B1F90E1000F008F9EE
:102A4C000028ABBF636DA3891B1823F48053ACBF64
:102A5C006365A38110BD2DE9F0411F468B890546A6
:102A6C00DB050C46164605D502230022B1F90E10E3
:102A7C0000F0DCF8A389324623F48053A381284666
:102A8C003B46B4F90E10BDE8F04100F0F3B810B5B8
:102A9C000C46B1F90E1000F0C9F8431CA38915BF00
:102AAC00606523F4805343F48053A38118BFA38142
:102ABC0010BDB1F90E1000F0A9B800000B46034987
:102ACC0002460868816800F031BA00BFAC000020F3
:102ADC00F8B50E461446054618B1036A0BB9FFF754
:102AEC0017FFA369A360A3891A0725D523691BB314
:102AFC0023682269F6B2981A63693746834204DC6C
:102B0C002146284600F042FDE0B9A368013BA360D2
:102B1C0023685A1C22601E706269431C9A4204D0BE
:102B2C00A389DB0706D50A2E04D12146284600F0DE
:102B3C002DFD38B93846F8BD2146284600F006F878
:102B4C000028D5D04FF0FF37F4E7000038B52A4BFA
:102B5C00054618680C4618B1036A0BB9FFF7D8FE86
:102B6C00A389B4F90C20180722D4D90607D4092359
:102B7C002B6042F040034FF0FF30A38134E0580744
:102B8C0012D5616B41B104F14403994202D028463D
:102B9C0000F0B0F800236363A38923F02403A3811E
:102BAC000023636023692360A38943F00803A38196
:102BBC0023694BB9A38903F42073B3F5007F03D0C9
:102BCC002146284600F02FFDA089B4F90C2010F006
:102BDC0001030AD00023A36063695B42A3612369EC
:102BEC0043B910F08000C4D138BD810758BF636968
:102BFC00A360F4E70020F7E7AC0000200346024492
:102C0C00934200D1704703F8011BF9E738B5002354
:102C1C00054D044608462B60FDF74BFE431C02D1C4
:102C2C002B6803B1236038BD4810002038B504462A
:102C3C00084611460022054D2A601A46FDF75DFE36
:102C4C00431C02D12B6803B1236038BD481000200F
:102C5C0038B50446084611460022054D2A601A462E
:102C6C00FDF70AFE431C02D12B6803B1236038BD6B
:102C7C004810002038B50446084611460022054D80
:102C8C002A601A46FEF7A0FB431C02D12B6803B145
:102C9C00236038BD48100020014B1868704700BFF6
:102CAC00AC00002070B500260C4D0D4C641BA4101C
:102CBC00A64209D100F034FD00260A4D0A4C641BD3
:102CCC00A410A64205D170BD55F8043B98470136B7
:102CDC00EEE755F8043B98470136F2E71C3800083C
:102CEC001C3800081C380008203800087047704752
:102CFC007047000038B50546002940D051F8043C17
:102D0C000C1F002BB8BFE41800F0DCF81C4A136849
:102D1C0033B9636014602846BDE8384000F0D8B879
:102D2C00A34208D9206821188B4201BF19685B683F
:102D3C0009182160EDE71A465B680BB1A342FAD97A
:102D4C0011685018A0420BD12068014450188342DE
:102D5C001160E0D118685B68084410605360DAE7D2
:102D6C0002D90C232B60D6E7206821188B4201BFB7
:102D7C0019685B680918216063605460CBE738BD43
:102D8C005010002070B50E4E0C463168054611B936
:102D9C0000F0A8FC30602146284600F0A3FC431C40
:102DAC000AD0C41C24F00304A04207D0211A2846E0
:102DBC0000F098FC013001D14FF0FF34204670BD7B
:102DCC00541000202DE9F843CD1C25F003050835DF
:102DDC000C2D38BF0C25002D074601DBA94205D967
:102DEC000C2300263B603046BDE8F883DFF8D0802A
:102DFC0000F068F8D8F800301C465CBB2946384611
:102E0C00FFF7C0FF431C044655D1D8F800402646B6
:102E1C00002E45D1002C48D023683146384604EBAF
:102E2C00030900F05FFC81453FD1216838466D1ADB
:102E3C002946FFF7A7FF013037D023682B442360C6
:102E4C00D8F80030002B38D05A68A2422BD100227F
:102E5C005A600FE02268521B1FD40B2A17D9611934
:102E6C00A342256018BF5960636808BFC8F80010FA
:102E7C0062514B60384604F10B0600F029F826F03D
:102E8C000706231DF21AAED09B1BA350ABE7A3423F
:102E9C006268DDD1C8F80020ECE723466468ACE733
:102EAC0034467668B4E71346CCE70C2338463B60CF
:102EBC0000F00EF897E72560DCE75B60FFDE00BFF3
:102ECC00501000200148FFF712BF00BF4C1000202B
:102EDC000148FFF70DBF00BF4C100020936810B4E1
:102EEC00013B002B936007DA9469A34201DB0A29AA
:102EFC0002D110BCFFF7ECBD1368581C10601970A0
:102F0C00084610BC7047F8B506460F461446D5184F
:102F1C00AC4201D1002007E03A46304614F8011BC0
:102F2C00FFF7DCFF431CF3D1F8BD00002DE9F04F97
:102F3C000D461446984606469DB018B1036A0BB967
:102F4C00FFF7E6FC6B6ED90705D4AB899A0502D462
:102F5C00A86DFFF7CCFEAB891B0701D52B699BB97C
:102F6C0029463046FFF7F2FD70B16B6EDC0704D5D5
:102F7C004FF0FF301DB0BDE8F08FAB899805F7D44A
:102F8C00A86DFFF7B5FEF3E70023099320238DF816
:102F9C00293030234FF00109CDF80C80DFF8AC81DB
:102FAC008DF82A3023469A4613F8012B0AB1252AAC
:102FBC00F9D1BAEB040B0BD05B46224629463046BE
:102FCC00FFF7A1FF013000F0A980099A5A44099239
:102FDC009AF80030002B00F0A18000234FF0FF3254
:102FEC00CDE905230AF1010A049307938DF85330B8
:102FFC001A935446052214F8011B544800F082FB26
:10300C00049AD8B9D10644BF20238DF85330130746
:10301C0044BF2B238DF853309AF800302A2B15D04F
:10302C00544600204FF00A0C079A214611F8013B38
:10303C00303B092B4DD9B0B1079214E0A0EB08033B
:10304C0009FA03F31343A2460493D2E7039B191D19
:10305C001B680391002BBBBF5B4242F0020207933B
:10306C000793B8BF049223782E2B0CD163782A2BAC
:10307C0034D1039B02341A1D1B680392002BB8BF7A
:10308C004FF0FF330593DFF8C8A003225046217898
:10309C0000F038FB38B14022049BA0EB0A008240C0
:1030AC0013430134049314F8011B062229488DF8AC
:1030BC00281000F027FB00283FD0274B1BBB039B9D
:1030CC00073323F0070308330393099B3B4409930D
:1030DC0068E70C4601200CFB0232A6E700234FF0F8
:1030EC000A0C194601340593204610F8012B303A8E
:1030FC00092A03D9002BC6D00591C4E70446012345
:10310C000CFB0121F0E703AB00932A463046134B2E
:10311C0004A9AFF300800746781CD6D16B6ED90793
:10312C0005D4AB899A0502D4A86DFFF7E1FDAB89F4
:10313C005B063FF51DAF09981CE703AB00932A46CD
:10314C003046064B04A900F07DF8E4E7E6370008AA
:10315C00EC370008F037000800000000132F0008BF
:10316C002DE9F047164699468A680B690746934243
:10317C00B8BF1346336091F843200C46DDF820802D
:10318C000AB1013333602368990642BF33680233B6
:10319C003360256815F0060506D104F1190AE368B9
:1031AC0032689B1AAB422BDC94F84320131E226826
:1031BC0018BF0123920630D44946384604F1430225
:1031CC00C047013023D02368226903F00603042B87
:1031DC0014BF002533684FF0000608BFE56804F102
:1031EC001A0408BFED1A54F8123C08BF25EAE5751D
:1031FC009342C4BF9B1AED18B5421AD1002008E0C7
:10320C000123524649463846C047013003D14FF09E
:10321C00FF30BDE8F0870135C1E73020E11881F8B7
:10322C0043005A1C94F845102244023382F8431090
:10323C00C2E70123224649463846C0470130E6D052
:10324C000136D9E72DE9FF470F7E9146782F80464E
:10325C000C469A460C9D01F1430207D8622F0AD8FE
:10326C00002F00F0D580582F00F0C18004F14205EA
:10327C0084F842703AE0A7F16303152BF6D801A14C
:10328C0051F823F0E9320008FD32000879320008C9
:10329C00793200087932000879320008FD320008D2
:1032AC007932000879320008793200087932000846
:1032BC000334000829330008BD33000879320008B4
:1032CC0079320008253400087932000829330008C7
:1032DC007932000879320008C53300082B681A1DB2
:1032EC001B682A6004F1420584F842300123A0E0F7
:1032FC0020682B68070603F10401296001D51E68BC
:10330C0003E04606FBD5B3F90060002E03DA2D234B
:10331C00764284F843300A23594812E02B6820681F
:10332C00191D2960050601D51E6802E04106FBD572
:10333C001E886F2F0CBF08230A235148002184F8E4
:10334C0043106568002DA8BF2168A560A4BF21F0BB
:10335C00040121600EB9002D4BD01546B6FBF3F1DC
:10336C0003FB1167C75D05F8017D3746BB420E466E
:10337C00F4D9082B0BD12368DE0708D523696168C3
:10338C009942DEBF302305F8013C05F1FF35521B95
:10339C0022614B4621464046CDF800A003AAFFF718
:1033AC00DFFE01304AD14FF0FF3004B0BDE8F087AA
:1033BC00236843F0200323607827324884F8457053
:1033CC00236829681F0651F8046B02D45F0648BFB6
:1033DC00B6B2DF0748BF43F02003296048BF236023
:1033EC001EB9236823F0200323601023A6E724488A
:1033FC00E4E71546BDE72B682668181D616928604F
:10340C0035061B6801D5196002E07006FBD51980E2
:10341C00002315462361BCE72B6800211A1D2A6086
:10342C001D686268284600F06DF908B1401B6060A9
:10343C0063682361002384F84330AAE72A4649468F
:10344C0040462369D0470130ADD023689B0713D485
:10345C00E068039B9842B8BF1846A6E701233246A2
:10346C0049464046D04701309DD00135E368039969
:10347C005B1AAB42F2DCEBE7002504F11906F5E729
:10348C00F7370008083800088A89F8B50546100790
:10349C000C4657D44B68002B04DC0B6C002B01DC66
:1034AC000020F8BDE66A002EFAD0002312F48052F8
:1034BC002F68216A2B6032D0606DA3895A0705D51D
:1034CC006368C01A636B0BB1236CC01A00230246ED
:1034DC00E66A2846216AB047431CA38906D12968AD
:1034EC001D292BD8284A0A41D60727D4002262600E
:1034FC002269D904226004D5421C01D12B6803B97E
:10350C006065616B2F600029CAD004F144039942B5
:10351C0002D02846FFF7EEFB00206063C1E70123D1
:10352C002846B047411CC8D12B68002BC5D01D2B99
:10353C0001D0162B01D12F60B2E7A38943F04003D1
:10354C00A381AEE70F69002FAAD0930718BF002301
:10355C000E6808BF4B69F61B0F608B60002E9FDD59
:10356C0033463A462846216AD4F828C0E04700285A
:10357C0006DCA3894FF0FF3043F04003A38190E7B2
:10358C000744361AEAE700BFFEFFBFDF38B50B6908
:10359C0005460C4613B90025284638BD18B1036AF8
:1035AC000BB9FFF7B5F9B4F90C30002BF3D0626E00
:1035BC00D00704D4990502D4A06DFFF798FB2846D8
:1035CC002146FFF761FF636E0546DA07E4D4A38951
:1035DC009B05E1D4A06DFFF78BFBDDE770B50C46C6
:1035EC00B1F90E10154600291E4696B00CDAA389C7
:1035FC00002113F0800F0CBF4FF480634023002098
:10360C0031602B6016B070BD6A4600F049F8002896
:10361C00EDDB019901F47041A1F500535942594178
:10362C004FF48063EBE78B8973B59D0706460C4618
:10363C0007D504F14703236023610123636102B0C2
:10364C0070BD6A4601ABFFF7C9FF009905463046CD
:10365C00FFF7B8FB48B9B4F90C309A05EFD423F056
:10366C00030343F00203A381E3E7A389206043F043
:10367C008003A381009B20616361019B5BB1304699
:10368C00B4F90E1000F01EF828B1A38923F003033F
:10369C0043F00103A381A3891D43A581CFE700005B
:1036AC0038B50023064D0446084611462B60FDF73D
:1036BC000BF9431C02D12B6803B1236038BD00BF4A
:1036CC004810002038B50023054D044608462B60F1
:1036DC00FDF709F9431C02D12B6803B1236038BDF7
:1036EC004810002038B50023054D044608462B60D1
:1036FC00FDF710F9431C02D12B6803B1236038BDD0
:10370C0048100020034610B5C9B202449342184633
:10371C0001D1002003E0047801338C42F6D110BDB6
:10372C00F8B500BFF8BC08BC9E467047F8B500BFA2
:08373C00F8BC08BC9E46704772
:1037440048617264204661756C74000025732849D1
:103754004E495429203A2025642D25700A00000082
:103764004170706C650000002573203A2025640ABE
:10377400000000004D616E676F0000005546203A5E
:103784002025640A00000000496E69746961746947
:103794006E672E2E2E2E0000000000000000000098
:1037A40001020304060708090000000001020304E3
:1037B4007461736B310000007461736B320000003C
:1037C4006D6F6E69746F72696E675461736B00001C
:1037D40002030405060708090A0B0C0D0E0F10104E
:1037E4000102232D302B2000686C4C006566674570
:1037F4004647003031323334353637383941424365
:103804004445460030313233343536373839616215
:0838140063646566000000001A
:04381C00310100086E
:043820000D0100088E
:103824000024F400FFFFFFFF110C0008890C0008BE
:103834001D10000889100008F51000086111000827
:10384400A911000825120008591200087112000875
:1038540089120008E912000831130008C91300088E
:10386400F50F0008650F00088D0F00081000000018
:103874000100000000000000030000000C0F002005
:10388400000000000C0F0020740F0020DC0F00204B
:103894000000000000000000000000000000000024
:1038A4000000000000000000000000000000000014
:1038B4000000000000000000000000000000000004
:1038C4000000000000000000000000006000002074
:04000005080009994D
:00000001FF
