:020000040800F2
:1000000000500020F50D0008BD0C00087D0E000812
:10001000C30C0008C90C0008CF0C00080000000049
:100020000000000000000000000000008D0E00082D
:10003000D50C000800000000A10E0008B50E000855
:100040003D0E00083D0E00083D0E00083D0E000864
:100050003D0E00083D0E00083D0E00083D0E000854
:100060003D0E00083D0E00083D0E00083D0E000844
:100070003D0E00083D0E00083D0E00083D0E000834
:100080003D0E00083D0E00083D0E00083D0E000824
:100090003D0E00083D0E00083D0E00083D0E000814
:1000A0003D0E00083D0E00083D0E00083D0E000804
:1000B0003D0E00083D0E00083D0E00083D0E0008F4
:1000C0003D0E00083D0E00083D0E00083D0E0008E4
:1000D0003D0E00083D0E00083D0E00083D0E0008D4
:1000E0003D0E00083D0E00083D0E00080000000017
:1000F0000000000000000000000000000000000000
:0C01000000000000000000005FF808F1A3
:10010C0010B5054C237833B9044B13B10448AFF345
:10011C0000800123237010BDB000002000000000FF
:10012C00E43F000808B5034B1BB103490348AFF388
:10013C00008008BD00000000B4000020E43F00086F
:10014C0081F0004102E000BF83F0004330B54FEA7C
:10015C0041044FEA430594EA050F08BF90EA020FE9
:10016C001FBF54EA000C55EA020C7FEA645C7FEA7C
:10017C00655C00F0E2804FEA5454D4EB5555B8BF9F
:10018C006D420CDD2C4480EA020281EA030382EA10
:10019C00000083EA010180EA020281EA0303362DA2
:1001AC0088BF30BD11F0004F4FEA01314FF4801C75
:1001BC004CEA113102D0404261EB410113F0004F87
:1001CC004FEA03334CEA133302D0524263EB43033E
:1001DC0094EA050F00F0A780A4F10104D5F1200EDC
:1001EC000DDB02FA0EFC22FA05F2801841F1000137
:1001FC0003FA0EF2801843FA05F359410EE0A5F10B
:10020C0020050EF1200E012A03FA0EFC28BF4CF03B
:10021C00020C43FA05F3C01851EBE37101F00045F1
:10022C0007D54FF0000EDCF1000C7EEB00006EEBFE
:10023C000101B1F5801F1BD3B1F5001F0CD3490888
:10024C005FEA30004FEA3C0C04F101044FEA4452DF
:10025C0012F5800F80F09A80BCF1004F08BF5FEA66
:10026C00500C50F1000041EB045141EA050130BD46
:10027C005FEA4C0C404141EB0101013C28BFB1F558
:10028C00801FE9D291F0000F04BF01460020B1FAA3
:10029C0081F308BF2033A3F10B03B3F120020CDA76
:1002AC000C3208DD02F1140CC2F10C0201FA0CF054
:1002BC0021FA02F10CE002F11402D8BFC2F1200CB9
:1002CC0001FA02F120FA0CFCDCBF41EA0C0190406F
:1002DC00E41AA2BF01EB0451294330BD6FEA0404B8
:1002EC001F3C1CDA0C340EDC04F11404C4F12002A3
:1002FC0020FA04F001FA02F340EA030021FA04F3B5
:10030C0045EA030130BDC4F10C04C4F1200220FA0B
:10031C0002F001FA04F340EA0300294630BD21FA49
:10032C0004F0294630BD94F0000F83F4801306BF0F
:10033C0081F480110134013D4EE77FEA645C18BF03
:10034C007FEA655C29D094EA050F08BF90EA020F9A
:10035C0005D054EA000C04BF1946104630BD91EA92
:10036C00030F1EBF0021002030BD5FEA545C05D195
:10037C004000494128BF41F0004130BD14F58004D4
:10038C003CBF01F5801130BD01F0004545F0FE4148
:10039C0041F470014FF0000030BD7FEA645C1ABF7D
:1003AC00194610467FEA655C1CBF0B46024650EAB4
:1003BC00013406BF52EA033591EA030F41F40021E0
:1003CC0030BD00BF90F0000F04BF0021704730B566
:1003DC004FF4806404F132044FF000054FF000013B
:1003EC0050E700BF90F0000F04BF0021704730B5FC
:1003FC004FF4806404F1320410F0004548BF4042D1
:10040C004FF000013EE700BF42004FEAE2014FEA25
:10041C0031014FEA02701FBF12F07F4393F07F4F00
:10042C0081F06051704732F07F4208BF704793F003
:10043C007F4F04BF41F40021704730B54FF4607416
:10044C0001F0004521F000411CE700BF50EA010219
:10045C0008BF704730B54FF000050AE050EA0102C2
:10046C0008BF704730B511F0004502D5404261EB32
:10047C0041014FF4806404F132045FEA915C3FF473
:10048C00D8AE4FF003025FEADC0C18BF03325FEA10
:10049C00DC0C18BF033202EBDC02C2F1200300FAC1
:1004AC0003FC20FA02F001FA03FE40EA0E0021FAE6
:1004BC0002F11444BDE600BF70B54FF0FF0C4CF4D4
:1004CC00E06C1CEA11541DBF1CEA135594EA0C0F86
:1004DC0095EA0C0F00F0DEF82C4481EA030621EAC1
:1004EC004C5123EA4C5350EA013518BF52EA0335FC
:1004FC0041F4801143F4801338D0A0FB02CE4FF0AE
:10050C000005E1FB02E506F00042E0FB03E54FF0DD
:10051C000006E1FB03569CF0000F18BF4EF0010ED5
:10052C00A4F1FF04B6F5007F64F5407404D25FEAD1
:10053C004E0E6D4146EB060642EAC62141EA555184
:10054C004FEAC52040EA5E504FEACE2EB4F1FD0CC6
:10055C0088BFBCF5E06F1ED8BEF1004F08BF5FEA44
:10056C00500E50F1000041EB045170BD06F00046F6
:10057C0046EA010140EA020081EA0301B4EB5C04A3
:10058C00C2BFD4EB0C0541EA045170BD41F480119B
:10059C004FF0000E013C00F3AB8014F1360FDEBFC0
:1005AC00002001F0004170BDC4F10004203C35DA9C
:1005BC000C341BDC04F11404C4F1200500FA05F31F
:1005CC0020FA04F001FA05F240EA020001F00042C0
:1005DC0021F0004110EBD37021FA04F642EB060136
:1005EC005EEA430E08BF20EAD37070BDC4F10C0460
:1005FC00C4F1200500FA04F320FA05F001FA04F224
:10060C0040EA020001F0004110EBD37041F100010F
:10061C005EEA430E08BF20EAD37070BDC4F120051A
:10062C0000FA05F24EEA020E20FA04F301FA05F282
:10063C0043EA020321FA04F001F0004121FA04F22A
:10064C0020EA020000EBD3705EEA430E08BF20EAFA
:10065C00D37070BD94F0000F0FD101F00046400034
:10066C0041EB010111F4801F08BF013CF7D041EAB6
:10067C00060195F0000F18BF704703F000465200BA
:10068C0043EB030313F4801F08BF013DF7D043EA8B
:10069C000603704794EA0C0F0CEA135518BF95EA41
:1006AC000C0F0CD050EA410618BF52EA4306D1D1C8
:1006BC0081EA030101F000414FF0000070BD50EAE7
:1006CC00410606BF1046194652EA430619D094EA71
:1006DC000C0F02D150EA013613D195EA0C0F05D15B
:1006EC0052EA03361CBF104619460AD181EA0301AF
:1006FC0001F0004141F0FE4141F470014FF0000067
:10070C0070BD41F0FE4141F4780170BD70B54FF001
:10071C00FF0C4CF4E06C1CEA11541DBF1CEA135581
:10072C0094EA0C0F95EA0C0F00F0A7F8A4EB050463
:10073C0081EA030E52EA03354FEA013100F088805A
:10074C004FEA03334FF0805545EA131343EA126323
:10075C004FEA022245EA111545EA10654FEA0026D8
:10076C000EF000419D4208BF964244F1FD0404F591
:10077C00407402D25B084FEA3202B61A65EB0305ED
:10078C005B084FEA32024FF480104FF4002CB6EBAA
:10079C00020E75EB030E22BFB61A754640EA0C002A
:1007AC005B084FEA3202B6EB020E75EB030E22BF6A
:1007BC00B61A754640EA5C005B084FEA3202B6EBAB
:1007CC00020E75EB030E22BFB61A754640EA9C006A
:1007DC005B084FEA3202B6EB020E75EB030E22BF3A
:1007EC00B61A754640EADC0055EA060E18D04FEAF8
:1007FC00051545EA16754FEA06164FEAC30343EA98
:10080C0052734FEAC2025FEA1C1CC0D111F4801F64
:10081C000BD141EA00014FF000004FF0004CB6E75D
:10082C0011F4801F04BF01430020B4F1FD0C88BFFC
:10083C00BCF5E06F3FF6AFAEB5EB030C04BFB6EB07
:10084C00020C5FEA500C50F1000041EB045170BDFA
:10085C000EF0004E4EEA113114EB5C04C2BFD4EB27
:10086C000C0541EA045170BD41F480114FF0000EAB
:10087C00013C90E645EA060E8DE60CEA135594EA27
:10088C000C0F08BF95EA0C0F3FF43BAF94EA0C0F2A
:10089C000AD150EA01347FF434AF95EA0C0F7FF49F
:1008AC0025AF104619462CE795EA0C0F06D152EAF3
:1008BC0003353FF4FDAE1046194622E750EA4106D7
:1008CC0018BF52EA43067FF4C5AE50EA41047FF4E8
:1008DC000DAF52EA43057FF4EBAE12E74FF0FF3C4D
:1008EC0006E000BF4FF0010C02E000BF4FF0010C1E
:1008FC004DF804CD4FEA410C7FEA6C5C4FEA430C97
:10090C0018BF7FEA6C5C1BD001B050EA410C0CBFE5
:10091C0052EA430C91EA030F02BF90EA020F002047
:10092C00704710F1000F91EA030F58BF994208BFAE
:10093C0090422CBFD8176FEAE37040F0010070476B
:10094C004FEA410C7FEA6C5C02D150EA013C07D1C2
:10095C004FEA430C7FEA6C5CD6D152EA033CD3D00D
:10096C005DF8040B704700BF8446104662468C4607
:10097C001946634600E000BF01B5FFF7B7FF00283A
:10098C0048BF10F1000F01BD4DF808EDFFF7F4FF63
:10099C000CBF012000205DF808FB00BF4DF808EDEE
:1009AC00FFF7EAFF34BF012000205DF808FB00BF11
:1009BC004DF808EDFFF7E0FF94BF012000205DF833
:1009CC0008FB00BF4DF808EDFFF7CEFF94BF0120E8
:1009DC0000205DF808FB00BF4DF808EDFFF7C4FFE1
:1009EC0034BF012000205DF808FB00BF4FEA410C2A
:1009FC007FEA6C5C02D150EA013C0AD14FEA430C0D
:100A0C007FEA6C5C02D152EA033C02D14FF0000049
:100A1C0070474FF0010070474FEA410212F5001287
:100A2C0015D211D56FF47873B3EB625212D94FEA29
:100A3C00C12343F0004343EA505311F0004F23FA13
:100A4C0002F018BF404270474FF00000704750EA68
:100A5C00013005D111F0004008BF6FF00040704725
:100A6C004FF00000704700BF80B500AF01F05CF89C
:100A7C0000F007F800F074F800F048F800F0E0FB24
:100A8C00FEE780B590B000AF07F1180328220021D3
:100A9C00184602F061F93B1D00221A605A609A60F8
:100AAC00DA601A610123BB614FF48033FB610023D0
:100ABC003B620123BB6202237B634FF48033BB6335
:100ACC004FF4E013FB6307F11803184601F032FBF7
:100ADC000346002B01D000F083F80F237B60022328
:100AEC00BB600023FB604FF480633B6100237B61A0
:100AFC003B1D0221184601F09FFD0346002B01D03F
:100B0C0000F06EF800BF4037BD4680BD80B500AF29
:100B1C00114B124A1A60104B4FF4E1325A600E4BD3
:100B2C0000229A600C4B0022DA600B4B00221A61F7
:100B3C00094B0C225A61084B00229A61064B002289
:100B4C00DA61054801F006FF0346002B01D000F0E6
:100B5C0047F800BF80BD00BFCC000020003801402A
:100B6C0080B586B000AF07F1080300221A605A6006
:100B7C009A60DA60184B9B69174A43F02003936123
:100B8C00154B9B6903F020037B607B68124B9B69C0
:100B9C00114A43F0040393610F4B9B6903F0040368
:100BAC003B603B6800224FF400510C4801F0AAFA5C
:100BBC004FF40053BB600123FB6000233B61022315
:100BCC007B6107F108031946044801F017F900BFCF
:100BDC001837BD4680BD00BF001002400008014020
:100BEC0080B400AF72B600BFFEE7000080B483B0E3
:100BFC0000AF0E4B9B690D4A43F0010393610B4B05
:100C0C009B6903F001037B607B68084BDB69074A37
:100C1C0043F08053D361054BDB6903F080533B6099
:100C2C003B6800BF0C37BD4680BC704700100240CB
:100C3C0080B588B000AF786007F1100300221A600D
:100C4C005A609A60DA607B681B68164A934224D11A
:100C5C00154B9B69144A43F480439361124B9B6977
:100C6C0003F48043FB60FB680F4B9B690E4A43F017
:100C7C00040393610C4B9B6903F00403BB60BB68DA
:100C8C004FF400733B6112237B610323FB6107F17B
:100C9C0010031946054801F0B1F800BF2037BD46D6
:100CAC0080BD00BF00380140001002400008014028
:100CBC0080B400AFFEE780B400AFFEE780B400AFB5
:100CCC00FEE780B400AFFEE780B400AF00BFBD46C6
:100CDC0080BC704780B586B000AFF860B9607A60B0
:100CEC0000237B610AE0AFF300800146BB685A1C0D
:100CFC00BA60CAB21A707B6901337B617A697B680E
:100D0C009A42F0DB7B6818461837BD4680BD80B42C
:100D1C0083B000AF78604FF0FF3318460C37BD46F8
:100D2C0080BC704780B483B000AF786039603B689A
:100D3C004FF400525A60002318460C37BD4680BC55
:100D4C00704780B483B000AF7860012318460C372D
:100D5C00BD4680BC704780B485B000AFF860B96008
:100D6C007A60002318461437BD4680BC70470000DB
:100D7C0080B586B000AF7860144A154BD31A7B61EE
:100D8C007B693B61134B1B68002B02D1114B124A40
:100D9C001A60104B1A687B6813443A699A4207D25E
:100DAC0001F0B0FF03460C221A604FF0FF3309E04C
:100DBC00084B1B68FB60074B1A687B681344054A99
:100DCC001360FB6818461837BD4680BD00500020E4
:100DDC000004000014010020F00E002080B400AFCD
:100DEC0000BFBD4680BC7047FFF7F8FF0B480C49AD
:100DFC000C4A002302E0D458C4500433C4188C426B
:100E0C00F9D3094A094C002301E013600432A242D1
:100E1C00FBD301F07DFFFFF727FE70470000002099
:100E2C00B000002060410008B0000020EC0E002053
:100E3C00FEE7000080B584B000AFF860B9607A605E
:100E4C00094B1B6A98477B689AB24FF0FF33B9681D
:100E5C00064801F0D7FD044B5B6A98477B6818463F
:100E6C001037BD4680BD00BF08000020CC0000201C
:100E7C0080B500AF014801F0F9FFFEE7FC3F000828
:100E8C0080B500AF024B1B6B984700BF80BD00BF05
:100E9C000800002080B500AF024B9B6B984700BF49
:100EAC0080BD00BF0800002080B500AF00F082FEBE
:100EBC00024B5B6B984700BF80BD00BF0800002051
:100ECC0080B584B000AF78607B68022B01D1012320
:100EDC0031E07B68012B04DD7B6803F00103002B00
:100EEC0001D1002327E07868FFF77CFA02460B4615
:100EFC001046194602F09CFF02460B461046194656
:100F0C00FFF78AFD0346BB600323FB600EE07B68A2
:100F1C00FA6893FBF2F2F96801FB02F29B1A002BC0
:100F2C0001D1002307E0FB680133FB60FA68BB6862
:100F3C009A42ECDD012318461037BD4680BD80B5C2
:100F4C0084B000AF78600023FB600023BB60B868FE
:100F5C00FFF7B6FF0346002B08D0FB680133FB609C
:100F6C00FA687B689A4201D1BB6803E0BB68013325
:100F7C00BB60ECE718461037BD4680BD80B487B027
:100F8C0000AF78607B687B6100233B611DE07A6970
:100F9C00154B83FB02139910D317C91A0B469B00F0
:100FAC000B445B00D31AFB603A6913469B00134455
:100FBC005B001A46FB6813443B617B690A4A82FB5F
:100FCC0003129210DB17D31A7B617B69002BDED1E5
:100FDC007A683B699A4201D1012300E0002318464C
:100FEC001C37BD4680BC70476766666680B584B0AA
:100FFC0000AF78600023FB600023BB60B868FFF78C
:10100C00BDFF0346002B08D0FB680133FB60FA6878
:10101C007B689A4201D1BB6803E0BB680133BB60BB
:10102C00ECE718461037BD4680BD000090B585B082
:10103C0000AF786039603B6808331B681B68FB6045
:10104C003B681B68BB60BB6801221A703B680433A9
:10105C001C68F868FFF773FF03462360BB68022225
:10106C001A70044B9B680020984700BF1437BD468C
:10107C0090BD00BF0800002080B586B000AF78603E
:10108C0039603B689B687B613B681B683B613B68D4
:10109C005B68FB603B6901221A707B691B68184610
:1010AC00FFF7A4FF0246FB681A603B6902221A7024
:1010BC00034B9B680020984700BF1837BD4680BD86
:1010CC000800002090B591B002AF78603960012320
:1010DC007B6300233B634FF0FF33FB6207F130036C
:1010EC003B6207F12C037B6207F13403BB620023E4
:1010FC00FB614FF0FF33BB6107F11C03FB6007F191
:10110C0018033B6107F134037B613B6B002B0ED161
:10111C00404B1C6807F12003009303234FF48072AB
:10112C003D493E48A0473B4B9B690A209847FB69C9
:10113C00002B0ED1374B1C6807F10C0300930323D3
:10114C004FF4807236493748A047324B9B690A20CE
:10115C0098473B6B022B1CD1FB69022B19D12D4BF1
:10116C00DB697A6B1146304898472A4BDB69FA6A7F
:10117C0011462E489847274BDB69BA6911462C4813
:10118C0098470023FB6100233B637B6B64337B63D9
:10119C0037E03B6B022B12D11E4BDB697A6B11468D
:1011AC00214898471B4BDB69FA6A11461F48984740
:1011BC00184BDB697A6B11461E48984721E0FB6996
:1011CC00022B10D1134BDB697A6B11461A489847E6
:1011DC00104BDB69194898470E4BDB69BA6911460D
:1011EC00134898470DE00B4BDB697A6B11460E48A0
:1011FC009847084BDB6911489847064BDB690D484B
:10120C0098470A2001F0B0FD024B9B694FF47A70AD
:10121C0098477AE7080000201805002039100008CC
:10122C001809002085100008084000081C40000820
:10123C0030400008444000085C4000086C40000846
:10124C0090B583B002AF0C4801F010FE40F6B830F8
:10125C0000F0CCFC094B1C680023009300234FF4D6
:10126C00807207490748A047044B5B68984700BF4A
:10127C000437BD4690BD00BF844000080800002024
:10128C0018010020D110000880B483B000AF0346D1
:10129C003960FB7197F90730002B0ADB3B68DAB237
:1012AC000C4997F907301201D2B20B4483F8002392
:1012BC000AE03B68DAB20849FB7903F00F03043B00
:1012CC001201D2B20B441A7600BF0C37BD4680BC5B
:1012DC00704700BF00E100E000ED00E080B400AF1B
:1012EC00044B00221A60034B1B680133014A136044
:1012FC00F9E700BFD40E002080B487B000AFF860CF
:10130C00B9607A603B60FB687B61FB68D8B263496B
:10131C007A691346DB0013449B000B4402461A7097
:10132C005E497A691346DB0013449B000B4404337B
:10133C007A681A6059497A691346DB0013449B009A
:10134C000B4408333A681A6054497A691346DB0037
:10135C0013449B000B441433BA681A604F497A69E2
:10136C001346DB0013449B000B44103301221A700C
:10137C004A497A691346DB0013449B000B441C3327
:10138C003A6A1A6045497A691346DB0013449B009C
:10139C000B4420337A6A1A603B689B007A681344CA
:1013AC003B613B69043B3B613B694FF080721A60C7
:1013BC003B69043B3B61BA683B691A603B69043B7F
:1013CC003B613B696FF002021A603B69043B3B6175
:1013DC003B694FF012321A603B69043B3B613B693D
:1013EC004FF003321A603B69043B3B613B694FF0A1
:1013FC0002321A603B69043B3B617A6A3B691A60B2
:10140C003B69043B3B613A6A3B691A603B69043BAC
:10141C003B613B694FF011321A603B69043B3B6105
:10142C003B694FF010321A603B69043B3B613B69EE
:10143C004FF009321A603B69043B3B613B694FF04A
:10144C0008321A603B69043B3B613B694FF0073241
:10145C001A603B69043B3B613B694FF006321A60F2
:10146C003B69043B3B613B694FF005321A603B69B9
:10147C00043B3B613B694FF004321A603969074801
:10148C007A691346DB0013449B0003440C33196048
:10149C0000BF1C37BD4680BC704700BF180D002034
:1014AC0080B588B002AFF860B9607A603B60184BC9
:1014BC0001221A7001237B610DE016497A691346EB
:1014CC00DB0013449B000B441B78DBB2002B06D0D3
:1014DC007B6901337B617B69042BEEDD00E000BF8F
:1014EC007B69042B02DD4FF0FF330DE03B6A019367
:1014FC003B6800937B68BA68F9687869FFF7FCFE73
:10150C00034B00221A707B6918461837BD4680BD04
:10151C00D00D0020180D002080B586B002AF00233E
:10152C0001930023009340232F4A30490020FFF7FA
:10153C00E3FEFF216FF00100FFF7A6FE2C4B00220B
:10154C001A600123FB6011E02A49FA681346DB009C
:10155C0013449B000B441B78DBB2002B03D0244AB2
:10156C00FB68136005E0FB680133FB60FB68042B30
:10157C00EADD1F4B1A681F491346DB0013449B001E
:10158C000B440C331B68BB60BB68184680F309889E
:10159C00EFF3148040F0020080F31488EFF3148012
:1015AC0040F0010080F31488BB6838331B687B6003
:1015BC000F4B1A680F491346DB0013449B000B4476
:1015CC001C3318680A4B1A680A491346DB0013448B
:1015DC009B000B4420331A687B681146984700BF68
:1015EC001037BD4680BD00BFD40D0020E9120008A5
:1015FC0004000020180D0020F0B585B002AF604B40
:10160C001B78DBB2002B40F0B6805E4B01221A60D7
:10161C00A2E05D4B1B68591C5C4B83FB01235A10E9
:10162C00CB17D21A13469B001344CA1A564B1A6096
:10163C00554B1A6856491346DB0013449B000B4468
:10164C001B78DBB2002B7FD000F0C6FA01464E4B64
:10165C001A684F481346DB0013449B0003441833AD
:10166C001B68994272D9484B1A6849491346DB00EA
:10167C0013449B000B4410331B78DBB2022B0AD1B2
:10168C00414B1A6842491346DB0013449B000B4440
:10169C0000221A705BE03C4B1A683D491346DB0094
:1016AC0013449B000B4410331B78DBB2032B3DD14E
:1016BC00354B1868344B1A6835491346DB00134414
:1016CC009B000B4414331C682F4B1A68304913468B
:1016DC00DB0013449B000B4404331D682A4B1A682F
:1016EC002B491346DB0013449B000B4408331E6844
:1016FC00254B1A6826491346DB0013449B000B4408
:10170C001C331968204B1A68214B7B601346DB0095
:10171C0013449B007A68134420331B680193009197
:10172C0033462A462146FFF7E7FD1BE0164B1A68A5
:10173C0017491346DB0013449B000B4410331B78F2
:10174C00DBB2002B0ED102E000BF00E000BF0D4B5E
:10175C001B6801330B4A13600A4B1B68042B7FF781
:10176C0058AF00E000BF074B1B68042B04DD064B91
:10177C0000221A6000E000BF0C37BD46F0BD00BF70
:10178C00D00D0020CC0D002004000020676666669A
:10179C00180D002080B400AF064B1B68002B05DB36
:1017AC00054B5B68044A43F08053536000BFBD4651
:1017BC0080BC70470400002000ED00E0BDE88040D4
:1017CC0000B5EFF3098020E9F00F104B1A680146C1
:1017DC000F481346DB0013449B0003440C33196081
:1017EC00FFF70AFF094B1A6809491346DB0013443B
:1017FC009B000B440C331B681846B0E8F00F80F3C9
:10180C0009885DF804EB00BF704700BF040000209E
:10181C00180D002080B400AF00DF00BFBD4680BCB7
:10182C007047000080B400AF064B1B68002B05DB33
:10183C00054B5B68044A43F08053536000BFBD46C0
:10184C0080BC70470400002000ED00E080B582B041
:10185C0000AF7860134B01221A707B68002B02D109
:10186C00114B1B687B607B68002B0CDD7B68042BA9
:10187C0009DC0E497A681346DB0013449B000B44C9
:10188C00103302221A70074B00221A70064B1B6889
:10189C007A689A4201D1FFF7BDFF00BF0837BD46F9
:1018AC0080BD00BFD00D002004000020180D0020CA
:1018BC0080B582B000AF7860134B01221A707B6840
:1018CC00002B02D1114B1B687B607B68002B0CDD5D
:1018DC007B68042B09DC0E497A681346DB00134441
:1018EC009B000B44103303221A70074B00221A7012
:1018FC00064B1B687A689A4201D1FFF78BFF00BF39
:10190C000837BD4680BD00BFD00D0020040000206C
:10191C00180D002080B582B000AF7860134B012207
:10192C001A707B68002B02D1114B1B687B607B68A3
:10193C00002B0CDD7B68042B09DC0E497A681346FE
:10194C00DB0013449B000B44103300221A70074B2E
:10195C0000221A70064B1B687A689A4201D1FFF775
:10196C0059FF00BF0837BD4680BD00BFD00D002019
:10197C0004000020180D002080B483B000AF786004
:10198C000D4B01221A707B68002B0CDD7B68042B3D
:10199C0009DC0A497A681346DB0013449B000B44AC
:1019AC00103301221A70044B00221A7000BF0C373E
:1019BC00BD4680BC704700BFD00D0020180D002024
:1019CC0080B582B000AF7860114B01221A70114BB8
:1019DC001B68002B12DD0F4B1B68042B0EDC00F078
:1019EC00FBF801460B4B1A687B6819440A481346EE
:1019FC00DB0013449B00034418331960044B002292
:101A0C001A70FFF707FF00BF0837BD4680BD00BF47
:101A1C00D00D002004000020180D00200FB480B55C
:101A2C0082B000AF094B01221A7007F114037B60DE
:101A3C007968386901F022FA044B00221A7000BF51
:101A4C000837BD46BDE8804004B07047D00D00207B
:101A5C0080B400AF034B01221A7000BFBD4680BC9E
:101A6C00704700BFD00D002080B400AF034B0022A4
:101A7C001A7000BFBD4680BC704700BFD00D00205F
:101A8C0080B582B000AF7860124B01221A707B686F
:101A9C00002B16D0104B1B68002B12DD0E4B1B6855
:101AAC00042B0EDC0C4B1A687B681A600A4B1A6804
:101ABC000A491346DB0013449B000B4410330022ED
:101ACC001A70044B00221A70FFF7A4FE00BF0837EF
:101ADC00BD4680BDD00D002004000020180D002054
:101AEC0080B483B000AF78600D4B01221A707B6814
:101AFC00002B0CDD7B68042B09DC0A497A68134641
:101B0C00DB0013449B000B44103301221A70044B6E
:101B1C0000221A7000BF0C37BD4680BC704700BF56
:101B2C00D00D0020180D002080B500AF084B1B68AD
:101B3C00074A43F010031360032000F02BF90F2029
:101B4C0000F008F8FFF752F80023184680BD00BFDC
:101B5C000020024080B582B000AF7860124B1A684A
:101B6C00124B1B7819464FF47A73B3FBF1F3B2FBAB
:101B7C00F3F3184600F035F90346002B01D001238E
:101B8C000EE07B680F2B0AD8002279684FF0FF30EB
:101B9C0000F00BF9064A7B681360002300E0012378
:101BAC0018460837BD4680BD0000002048000020C4
:101BBC004400002080B400AF054B1B781A46054B3F
:101BCC001B681344034A136000BFBD4680BC7047BA
:101BDC0048000020D80E002080B400AF024B1B68D8
:101BEC001846BD4680BC7047D80E002080B584B026
:101BFC0000AF7860FFF7F0FFB8607B68FB60FB68B4
:101C0C00B3F1FF3F05D00A4B1B781A46FB6813440F
:101C1C00FB6000BFFFF7E0FF0246BB68D31AFA680F
:101C2C009A42F7D800BF00BF1037BD4680BD00BF39
:101C3C004800002080B485B000AF78607B6803F06A
:101C4C000703FB600C4BDB68BB60BA684FF6FF0305
:101C5C001340BB60FB681A02BB68134343F0BF63BD
:101C6C0043F40033BB60044ABB68D36000BF143735
:101C7C00BD4680BC704700BF00ED00E080B400AFF3
:101C8C00044BDB681B0A03F007031846BD4680BCF7
:101C9C00704700BF00ED00E080B483B000AF034696
:101CAC003960FB7197F90730002B0ADB3B68DAB21D
:101CBC000C4997F907301201D2B20B4483F8002378
:101CCC000AE03B68DAB20849FB7903F00F03043BE6
:101CDC001201D2B20B441A7600BF0C37BD4680BC41
:101CEC00704700BF00E100E000ED00E080B489B077
:101CFC0000AFF860B9607A60FB6803F00703FB6122
:101D0C00FB69C3F10703042B28BF0423BB61FB69E8
:101D1C000433062B02D9FB69033B00E000237B61F3
:101D2C004FF0FF32BB6902FA03F3DA43BB681A4087
:101D3C007B699A404FF0FF317B6901FA03F3D94379
:101D4C007B680B40134318462437BD4680BC704754
:101D5C0080B582B000AF78607B68013BB3F1807FC7
:101D6C0001D301230FE00A4A7B68013B53600F212A
:101D7C004FF0FF30FFF790FF054B00229A60044BA9
:101D8C0007221A60002318460837BD4680BD00BFE5
:101D9C0010E000E080B582B000AF78607868FFF7A3
:101DAC0049FF00BF0837BD4680BD80B586B000AF87
:101DBC000346B9607A60FB7300237B61FFF75EFF1B
:101DCC0078617A68B9687869FFF790FF024697F9ED
:101DDC000F3011461846FFF75FFF00BF1837BD469E
:101DEC0080BD80B582B000AF78607868FFF7B0FF37
:101DFC00034618460837BD4680BD000080B48BB042
:101E0C0000AF7860396000237B6200233B6269E19C
:101E1C0001227B6A02FA03F3FB613B681B68FA69D7
:101E2C001340BB61BA69FB699A4240F058813B6828
:101E3C005B689A4A93425ED0984A934275D8984A06
:101E4C00934258D0964A93426FD8964A934252D0B6
:101E5C00944A934269D8944A93424CD0924A934202
:101E6C0063D8924A934246D0904A93425DD8122B43
:101E7C002AD8122B59D801A252F823F0031F0008BC
:101E8C00DD1E0008EF1E0008311F0008371F000878
:101E9C00371F0008371F0008371F0008371F0008BE
:101EAC00371F0008371F0008371F0008371F0008AE
:101EBC00371F0008371F0008371F0008371F00089E
:101ECC00E51E0008F91E0008794A934213D02CE055
:101EDC003B68DB683B6229E03B68DB6804333B62B0
:101EEC0024E03B68DB6808333B621FE03B68DB683F
:101EFC000C333B621AE03B689B68002B02D1042335
:101F0C003B6213E03B689B68012B05D108233B62C5
:101F1C007B68FA691A6109E008233B627B68FA69FD
:101F2C005A6103E000233B6200E000BFBB69FF2B5A
:101F3C0001D87B6801E07B6804337B61BB69FF2BB4
:101F4C0002D87B6A9B0002E07B6A083B9B003B61EA
:101F5C007B691A680F213B6901FA03F3DB431A40D2
:101F6C00396A3B6901FA03F31A437B691A603B68CF
:101F7C005B6803F08053002B00F0B1804D4B9B69E4
:101F8C004C4A43F0010393614A4B9B6903F00103F4
:101F9C00BB60BB68484A7B6A9B08023352F823300B
:101FAC00FB607B6A03F003039B000F2202FA03F32E
:101FBC00DB43FA681340FB607B68404A934213D0C2
:101FCC007B683F4A93420DD07B683E4A934207D0D0
:101FDC007B683D4A934201D1032306E0042304E0CD
:101FEC00022302E0012300E000237A6A02F00302DC
:101FFC0092009340FA681343FB602F497B6A9B085D
:10200C000233FA6841F823203B685B6803F48013C1
:10201C00002B06D02D4B9A682C49BB6913438B605F
:10202C0006E02A4B9A68BB69DB43284913408B6056
:10203C003B685B6803F40013002B06D0234BDA6873
:10204C002249BB691343CB6006E0204BDA68BB69BD
:10205C00DB431E491340CB603B685B6803F40033E1
:10206C00002B06D0194B5A681849BB6913434B60B7
:10207C0006E0164B5A68BB69DB43144913404B60AE
:10208C003B685B6803F48033002B21D00F4B1A683C
:10209C000E49BB6913430B6021E000BF00003210F6
:1020AC00000031100000221000002110000012105E
:1020BC000000111000100240000001400008014017
:1020CC00000C0140001001400014014000040140CC
:1020DC000B4B1A68BB69DB43094913400B607B6AE5
:1020EC0001337B623B681A687B6A22FA03F3002B8C
:1020FC007FF48EAE00BF00BF2C37BD4680BC70474E
:10210C000004014080B483B000AF78600B467B8044
:10211C0013467B707B78002B03D07A887B681A611E
:10212C0003E07B881A047B681A6100BF0C37BD463C
:10213C0080BC704780B586B000AF78607B68002BA0
:10214C0001D1012372E27B681B6803F00103002BB1
:10215C0000F08780924B5B6803F00C03042B0CD0CF
:10216C008F4B5B6803F00C03082B12D18C4B5B6814
:10217C0003F48033B3F5803F0BD1894B1B6803F418
:10218C000033002B6CD07B685B68002B68D101237B
:10219C004CE27B685B68B3F5803F06D1804B1B68D3
:1021AC007F4A43F4803313602EE07B685B68002B1E
:1021BC000CD17B4B1B687A4A23F480331360784B29
:1021CC001B68774A23F4802313601DE07B685B68EF
:1021DC00B3F5A02F0CD1724B1B68714A43F48023CA
:1021EC0013606F4B1B686E4A43F4803313600BE033
:1021FC006B4B1B686A4A23F480331360684B1B6873
:10220C00674A23F4802313607B685B68002B13D030
:10221C00FFF7E2FC386108E0FFF7DEFC02463B69A1
:10222C00D31A642B01D9032300E25D4B1B6803F422
:10223C000033002BF0D014E0FFF7CEFC386108E03F
:10224C00FFF7CAFC02463B69D31A642B01D903235E
:10225C00ECE1534B1B6803F40033002BF0D100E08E
:10226C0000BF7B681B6803F00203002B63D04C4B50
:10227C005B6803F00C03002B0BD0494B5B6803F03D
:10228C000C03082B1CD1464B5B6803F48033002BEA
:10229C0016D1434B1B6803F00203002B05D07B685F
:1022AC001B69012B01D00123C0E13D4B1B6823F0BE
:1022BC00F8027B685B69DB00394913430B603AE039
:1022CC007B681B69002B20D0364B01221A60FFF76C
:1022DC0083FC386108E0FFF77FFC02463B69D31AA8
:1022EC00022B01D90323A1E12D4B1B6803F0020340
:1022FC00002BF0D02A4B1B6823F0F8027B685B693B
:10230C00DB00274913430B6015E0264B00221A60B3
:10231C00FFF762FC386108E0FFF75EFC02463B69A0
:10232C00D31A022B01D9032380E11D4B1B6803F048
:10233C000203002BF0D17B681B6803F00803002B11
:10234C003AD07B689B69002B19D0174B01221A607D
:10235C00FFF742FC386108E0FFF73EFC02463B69A0
:10236C00D31A022B01D9032360E10D4B5B6A03F0F6
:10237C000203002BF0D0012000F0CEFA1CE00A4B37
:10238C0000221A60FFF728FC38610FE0FFF724FCED
:10239C0002463B69D31A022B08D9032346E100BF3E
:1023AC00001002400000424280044242924B5B6AA1
:1023BC0003F00203002BE9D17B681B6803F00403D4
:1023CC00002B00F0A6800023FB758B4BDB6903F020
:1023DC008053002B0DD1884BDB69874A43F0805327
:1023EC00D361854BDB6903F08053BB60BB68012371
:1023FC00FB75824B1B6803F48073002B18D17F4B49
:10240C001B687E4A43F480731360FFF7E5FB386169
:10241C0008E0FFF7E1FB02463B69D31A642B01D9B4
:10242C00032303E1754B1B6803F48073002BF0D07E
:10243C007B68DB68012B06D16F4B1B6A6E4A43F03D
:10244C00010313622DE07B68DB68002B0CD16A4B17
:10245C001B6A694A23F001031362674B1B6A664AC5
:10246C0023F0040313621CE07B68DB68052B0CD1A2
:10247C00614B1B6A604A43F0040313625E4B1B6A98
:10248C005D4A43F0010313620BE05B4B1B6A5A4A33
:10249C0023F001031362584B1B6A574A23F00403C1
:1024AC0013627B68DB68002B15D0FFF795FB386156
:1024BC000AE0FFF791FB02463B69D31A41F28832DE
:1024CC00934201D90323B1E04B4B1B6A03F0020387
:1024DC00002BEED014E0FFF77FFB38610AE0FFF72A
:1024EC007BFB02463B69D31A41F28832934201D9F5
:1024FC0003239BE0404B1B6A03F00203002BEED13D
:10250C00FB7D012B05D13C4BDB693B4A23F080530F
:10251C00D3617B68DB69002B00F08780364B5B68EE
:10252C0003F00C03082B61D07B68DB69022B46D1CE
:10253C00334B00221A60FFF74FFB386108E0FFF7BE
:10254C004BFB02463B69D31A022B01D903236DE0E6
:10255C00294B1B6803F00073002BF0D17B681B6ABE
:10256C00B3F5803F08D1244B5B6823F400327B68C1
:10257C009B68214913434B601F4B5B6823F4741217
:10258C007B68196A7B685B6A0B431B4913434B607E
:10259C001B4B01221A60FFF71FFB386108E0FFF7A5
:1025AC001BFB02463B69D31A022B01D903233DE0E6
:1025BC00114B1B6803F00073002BF0D035E0104B6F
:1025CC0000221A60FFF708FB386108E0FFF704FBF4
:1025DC0002463B69D31A022B01D9032326E0064B92
:1025EC001B6803F00073002BF0D11EE07B68DB69E5
:1025FC00012B07D1012319E00010024000700040AC
:10260C00600042420B4B5B68FB60FB6803F480325A
:10261C007B681B6A9A4206D1FB6803F470127B68D4
:10262C005B6A9A4201D0012300E000231846183758
:10263C00BD4680BD0010024080B584B000AF78600C
:10264C0039607B68002B01D10123D0E06A4B1B68F9
:10265C0003F007033A689A4210D9674B1B6823F0C2
:10266C00070265493B6813430B60634B1B6803F01F
:10267C0007033A689A4201D00123B8E07B681B68D3
:10268C0003F00203002B20D07B681B6803F00403CB
:10269C00002B05D0594B5B68584A43F4E0635360F8
:1026AC007B681B6803F00803002B05D0534B5B6859
:1026BC00524A43F460535360504B5B6823F0F00272
:1026CC007B689B684D4913434B607B681B6803F028
:1026DC000103002B40D07B685B68012B07D1474B73
:1026EC001B6803F40033002B15D101237FE07B68BA
:1026FC005B68022B07D1414B1B6803F00073002B66
:10270C0009D1012373E03D4B1B6803F00203002B3E
:10271C0001D101236BE0394B5B6823F003027B682A
:10272C005B68364913434B60FFF756FAF8600AE0D2
:10273C00FFF752FA0246FB68D31A41F288329342F1
:10274C0001D9032353E02D4B5B6803F00C027B682B
:10275C005B689B009A42EBD1274B1B6803F0070385
:10276C003A689A4210D2244B1B6823F00702224984
:10277C003B6813430B60204B1B6803F007033A685C
:10278C009A4201D0012332E07B681B6803F00403FA
:10279C00002B08D0194B5B6823F4E0627B68DB6884
:1027AC00164913434B607B681B6803F00803002B2E
:1027BC0009D0124B5B6823F460527B681B69DB0009
:1027CC000E4913434B6000F021F802460B4B5B683B
:1027DC001B0903F00F030A49CB5C22FA03F3094AE5
:1027EC001360094B1B681846FFF7B4F90023184611
:1027FC001037BD4680BD00BF0020024000100240D3
:10280C0094400008000000204400002080B487B0F1
:10281C0000AF0023FB600023BB6000237B6100231F
:10282C007B6000233B611E4B5B68FB60FB6803F025
:10283C000C03042B02D0082B03D027E0194B3B616F
:10284C0027E0FB689B0C03F00F03174AD35C7B60FB
:10285C00FB6803F48033002B10D0114B5B685B0CCE
:10286C0003F00103114AD35CBB607B680D4A03FB88
:10287C0002F2BB68B2FBF3F37B6104E07B680C4AA9
:10288C0002FB03F37B617B693B6102E0054B3B611F
:10289C0000BF3B6918461C37BD4680BC704700BF63
:1028AC000010024000127A00AC400008BC40000846
:1028BC0000093D0080B400AF024B1B681846BD46B2
:1028CC0080BC70470000002080B500AFFFF7F2FF1E
:1028DC000246054B5B681B0A03F007030349CB5CFC
:1028EC0022FA03F3184680BD00100240A4400008F1
:1028FC0080B500AFFFF7DEFF0246054B5B68DB0AD5
:10290C0003F007030349CB5C22FA03F3184680BD9E
:10291C0000100240A440000880B485B000AF78607D
:10292C000A4B1B680A4AA2FB03235B0A7A6802FB68
:10293C0003F3FB6000BFFB685A1EFA60002BF9D151
:10294C0000BF00BF1437BD4680BC7047000000209C
:10295C00D34D621080B582B000AF78607B68002BDD
:10296C0001D101234AE07B6893F84130DBB2002BA4
:10297C0006D17B68002283F840207868FEF758F96E
:10298C007B68242283F841207B681B68DA687B68AB
:10299C001B6822F40052DA60786800F025F97B6835
:1029AC001B681A697B681B6822F490421A617B6869
:1029BC001B685A697B681B6822F022025A617B688B
:1029CC001B685A697B681B6842F008025A617B6875
:1029DC001B68DA687B681B6842F40052DA607B681B
:1029EC0000225A647B68202283F841207B682022D5
:1029FC0083F842207B6800225A630023184608376C
:102A0C00BD4680BD80B58AB002AFF860B9603B604E
:102A1C001346FB8000237B61FB6893F84130DBB2EB
:102A2C00202B6DD1BB68002B02D0FB88002B01D171
:102A3C00012366E0FB6800225A64FB68212283F8BC
:102A4C004120FFF7C9F87861FB68FA889A84FB6823
:102A5C00FA88DA84FB689B68B3F5805F08D1FB6861
:102A6C001B69002B04D10023FB61BB68BB6103E035
:102A7C00BB68FB610023BB612AE03B6800937B6968
:102A8C0000228021F86800F040F80346002B01D0AA
:102A9C00032336E0FB69002B0BD1BB691B881A465C
:102AAC00FB681B68C2F308025A60BB690233BB6146
:102ABC0007E0FB691A78FB681B685A60FB690133F5
:102ACC00FB61FB68DB8C9BB2013B9AB2FB68DA843E
:102ADC00FB68DB8C9BB2002BCFD13B6800937B69EE
:102AEC0000224021F86800F010F80346002B01D0BA
:102AFC00032306E0FB68202283F84120002300E03A
:102B0C00022318462037BD4680BD80B590B000AF7B
:102B1C00F860B9603B601346FB7150E0BB6CB3F1DD
:102B2C00FF3F4CD0BB6C002B07D0FFF755F802468B
:102B3C003B68D31ABA6C9A4241D2FB681B680C33BF
:102B4C00BB62BB6A53E8003F7B627B6A23F4D073A1
:102B5C00FB63FB681B680C33FA6B7A633B63396B62
:102B6C007A6B41E80023FB62FB6A002BE5D1FB6822
:102B7C001B6814337B617B6953E8003F3B613B6905
:102B8C0023F00103BB63FB681B681433BA6B3A6216
:102B9C00FB61F9693A6A41E80023BB61BB69002B10
:102BAC00E5D1FB68202283F84120FB68202283F8C2
:102BBC004220FB68002283F8402003230FE0FB68CF
:102BCC001B681A68BB681340BA689A420CBF012391
:102BDC000023DBB21A46FB799A429FD00023184699
:102BEC004037BD4680BD000080B584B000AF786032
:102BFC007B681B681B6923F440517B68DA687B682F
:102C0C001B680A431A617B689A687B681B691A43C4
:102C1C007B685B691343BB607B681B68DB6823F4D0
:102C2C00B05323F00C037A681268B9680B43D36075
:102C3C007B681B685B6923F440717B689A697B68CD
:102C4C001B680A435A617B681B682C4A934203D168
:102C5C00FFF74EFEF86002E0FFF736FEF860FA6808
:102C6C0013469B0013449A001A447B685B689B00D4
:102C7C00B2FBF3F3224AA2FB03235B091901FA68A6
:102C8C0013469B0013449A001A447B685B689B00B4
:102C9C00B2FBF3F21A4BA3FB02035B09642000FBAB
:102CAC0003F3D31A1B013233154AA2FB03235B092E
:102CBC0003F0F0031944FA6813469B0013449A007E
:102CCC001A447B685B689B00B2FBF3F20C4BA3FBD2
:102CDC0002035B09642000FB03F3D31A1B0132339C
:102CEC00074AA2FB03235B0903F00F027B681B68F6
:102CFC000A449A6000BF1037BD4680BD00380140C1
:102D0C001F85EB51014B1868704700BF4C00002029
:102D1C0070B500260C4D0D4C641BA410A64209D1B5
:102D2C0001F05AF900260A4D0A4C641BA410A64265
:102D3C0005D170BD55F8043B98470136EEE755F8C0
:102D4C00043B98470136F2E7584100085841000807
:102D5C00584100085C41000803460244934200D1EC
:102D6C00704703F8011BF9E738B5084B05461C689A
:102D7C0024B1A36913B9204600F06CFA2946204609
:102D8C00A268BDE8384000F035BF00BF4C00002001
:102D9C0070B50E46054618B183690BB900F05AFAA6
:102DAC00AB69AC6813B9284600F054FA2C4B9C4222
:102DBC0020D16C68636EDB0705D4A389980502D417
:102DCC00A06D00F0E5FAA38919071DD52369DBB1C5
:102DDC00013EA36816F8011F013BA36039BB002B11
:102DEC0038DA22460A21284600F05EF8013011D06C
:102DFC000A2511E01B4B9C4201D1AC68DAE71A4B57
:102E0C009C4208BFEC68D5E72146284600F09EF8A6
:102E1C000028DDD04FF0FF35636EDA0705D4A389A7
:102E2C009B0502D4A06D00F0B4FA284670BD002BAF
:102E3C0004DAA2699A4206DC0A2904D023685A1CD7
:102E4C0022601970C5E72246284600F02DF80130A3
:102E5C00BFD1DFE70A2523685A1C22601D70DBE70F
:102E6C00E440000804410008C4400008024B01463D
:102E7C001868FFF78DBF00BF4C000020094B70B5E0
:102E8C001C6805460E4624B1A36913B9204600F010
:102E9C00E1F933462A462046A168BDE8704000F0AF
:102EAC00E3BB00BF4C000020F8B50E4614460546A7
:102EBC0018B183690BB900F0CDF9214B9C422BD191
:102ECC006C68A369A360A3891A072FD523696BB318
:102EDC0023692068F6B2C01A63693746834204DC62
:102EEC002146284600F022F930BBA3680130013B93
:102EFC00A36023685A1C22601E706369834204D04D
:102F0C00A389DB0706D50A2E04D12146284600F0FA
:102F1C000DF988B93846F8BD0A4B9C4201D1AC6812
:102F2C00CFE7094B9C4208BFEC68CAE7214628460C
:102F3C0000F00CF80028CBD04FF0FF37EAE700BFC9
:102F4C00E440000804410008C4400008324B70B54E
:102F5C001D6806460C4625B1AB6913B9284600F02E
:102F6C0079F92E4B9C420FD16C68A389B4F90C20D3
:102F7C0019072CD4DD0611D40923336042F0400329
:102F8C004FF0FF30A3813EE0254B9C4201D1AC6851
:102F9C00EBE7244B9C4208BFEC68E6E7580712D5D8
:102FAC00616B41B104F14403994202D0304600F008
:102FBC0057FA00236363A38923F02403A38100231E
:102FCC00636023692360A38943F00803A381236909
:102FDC004BB9A38903F42073B3F5007F03D02146CA
:102FEC00304600F0FDF9A089B4F90C2010F0010373
:102FFC000AD00023A36063695B42A361236943B9D0
:10300C0010F08000BAD170BD810758BF6369A3600E
:10301C00F4E70020F7E700BF4C000020E440000874
:10302C0004410008C44000088A89F8B50546100719
:10303C000C4657D44B68002B04DC0B6C002B01DCCA
:10304C000020F8BDE66A002EFAD0002312F480525C
:10305C002F682B6032D0606DA3895A0705D5636841
:10306C00C01A636B0BB1236CC01A00230246E66ACC
:10307C002846216AB047431CA38906D129681D291B
:10308C002CD8294ACA40D60728D50022626022696A
:10309C00D904226004D5421C01D12B6803B96065A8
:1030AC00616B2F600029CBD004F14403994202D00C
:1030BC00284600F0D5F900206063C2E7216A01239D
:1030CC002846B047411CC7D12B68002BC4D01D2B00
:1030DC0001D0162B01D12F60B2E7A38943F0400336
:1030EC00A381AEE70F69002FAAD0930718BF002366
:1030FC000E6808BF4B69F61B0F608B60002E9FDDBE
:10310C0033463A462846216AD4F828C0E0470028BE
:10311C0006DCA3894FF0FF3043F04003A38190E716
:10312C000744361AEAE700BF0100402038B50B69A6
:10313C0005460C4613B90025284638BD18B18369DD
:10314C000BB900F087F8144B9C421BD16C68B4F996
:10315C000C30002BEFD0626ED00704D4990502D44A
:10316C00A06D00F015F928462146FFF75DFF636E50
:10317C000546DA07E0D4A3899B05DDD4A06D00F0E9
:10318C0008F9D9E7054B9C4201D1AC68DFE7044B49
:10319C009C4208BFEC68DAE7E440000804410008F0
:1031AC00C4400008002310B50446C0E90033C0E950
:1031BC000433836081814366C2818361194608228E
:1031CC005C30FFF7C9FD054B24626362044BA362BC
:1031DC00044BE362044B236310BD00BFB13C0008F9
:1031EC00D33C00080B3D00082F3D0008014900F0BE
:1031FC00AFB800BF39310008682270B54D1E554379
:10320C000E4605F1740100F093F9044640B100211B
:10321C00C0E900160C30A06005F16802FFF79CFDB8
:10322C00204670BD014800F0B3B800BFDD0E002091
:10323C00014800F0AEB800BFDD0E0020014800F0E0
:10324C00A7B800BFDE0E0020014800F0A2B800BFF6
:10325C00DE0E002010B50446FFF7F0FFA3691BB18A
:10326C00BDE81040FFF7F0BFC4E912332365134BE0
:10327C00134A1B68A262A34208BF0123204608BF61
:10328C00A36100F01FF86060204600F01BF8A060FE
:10329C00204600F017F800220421E0606068FFF778
:1032AC0081FF01220921A068FFF77CFF0222122175
:1032BC00E068FFF777FF0123A361D1E7C040000866
:1032CC00F9310008F8B50746FFF7ACFF1E4B1E6836
:1032DC00B36913B93046FFF7BDFF4836D6E9013460
:1032EC00013B03D533680BB33668F7E7B4F90C50E0
:1032FC00D5B9164B04F15800E360656600F047F849
:10330C00FFF796FF08222946C4E90155C4E9045584
:10331C002560A56104F15C00FFF71EFDC4E90D55A5
:10332C00C4E912552046F8BD6834D9E70421384663
:10333C00FFF762FF044630600028D5D1FFF778FF15
:10334C000C233B60EEE700BFC04000080100FFFF0C
:10335C002DE9F84306468846002700F14804D4E9D5
:10336C000195B9F1010905D52468002CF7D138462F
:10337C00BDE8F883AB89012B07D9B5F90E300133C1
:10338C0003D029463046C04707436835E9E7704704
:10339C007047704770B50E46B1F90E1014460029EF
:1033AC001D4696B008DA0022B6F90C302A601A06CF
:1033BC0010D44FF480630EE06A4600F0D9FC00286C
:1033CC00F1DB019A02F47042A2F500535A425A41C1
:1033DC002A60EEE740230020236016B070BD000089
:1033EC008B8973B59D0706460C4607D504F1470338
:1033FC00236023610123636102B070BD6A4601AB97
:10340C00FFF7C8FF00990546304600F091F848B91F
:10341C00B4F90C309A05EFD423F0030343F0020304
:10342C00A381E3E70D4BB362A389206043F08003D3
:10343C00A381009B20616361019B5BB13046B4F9B1
:10344C000E1000F0A7FC28B1A38923F0030343F06E
:10345C000103A381A0890543A581CDE7F9310008BB
:10346C0038B50546002940D051F8043C0C1F002B00
:10347C00B8BFE41800F0BEFC1C4A136833B9636093
:10348C0014602846BDE8384000F0BABCA34208D905
:10349C00206821188B4201BF19685B6809182160EC
:1034AC00EDE71A465B680BB1A342FAD911685018C4
:1034BC00A0420BD120680144501883421160E0D126
:1034CC0018685B68014411605360DAE702D90C2379
:1034DC002B60D6E7206821188B4201BF19685B6806
:1034EC000918216063605460CBE738BDE00E002002
:1034FC0070B50E4E0C463168054611B900F0C2FB92
:10350C0030602146284600F0BDFB431C0AD0C41C89
:10351C0024F00304A04207D0211A284600F0B2FB85
:10352C00013001D14FF0FF34204670BDE40E002075
:10353C002DE9F041CD1C25F0030508350C2D38BFC5
:10354C000C25002D074601DBA94205D90C230026CA
:10355C003B603046BDE8F0812E4E00F04BFC3368EA
:10356C001C4634BB29463846FFF7C2FF431C0446B1
:10357C004DD134682646002E40D12368314638465A
:10358C0004EB030800F07EFB80453AD1216803353B
:10359C006D1A25F0030508350C2D38BF0C2538465F
:1035AC002946FFF7A5FF01302BD023682B4423605D
:1035BC000EE02268521B1ED40B2A16D96119A342A5
:1035CC00256018BF5960636808BF316062514B6059
:1035DC00384604F10B0600F013FC26F00706231DF9
:1035EC00F21AB6D09B1BA350B3E76268A3420CBF80
:1035FC0032605A60ECE723466468B2E7344676687A
:10360C00B9E70C2338463B6000F0FAFBA1E72560D4
:10361C00DEE700BFE00E0020936810B4013B002BE6
:10362C00936007DA9469A34201DB0A2902D110BC2A
:10363C00FFF73ABC1368581C10601970084610BC90
:10364C007047F8B506460F461446D518AC4201D162
:10365C00002007E03A46304614F8011BFFF7DCFF68
:10366C00431CF3D1F8BD00002DE9F04F0D46144674
:10367C00984606469DB018B183690BB9FFF7EAFD71
:10368C00894B9D421BD175686B6ED90705D4AB89EC
:10369C009A0502D4A86DFFF77BFEAB891B0701D5F9
:1036AC002B69EBB929463046FFF750FCC0B16B6E65
:1036BC00DC070ED54FF0FF301DB0BDE8F08F7B4B13
:1036CC009D4201D1B568DFE7794B9D4208BFF56893
:1036DC00DAE7AB899805EDD4A86DFFF75AFEE9E758
:1036EC000023099320238DF8293030234FF0010952
:1036FC00CDF80C80DFF8BC818DF82A3023469A4631
:10370C0013F8012B0AB1252AF9D1BAEB040B0BD013
:10371C005B46224629463046FFF793FF013000F006
:10372C00AA80099A5A4409929AF80030002B00F0AA
:10373C00A28000234FF0FF32CDE905230AF1010AE4
:10374C00049307938DF853301A935446052214F8BA
:10375C00011B584800F040FB049AD8B9D10644BF6D
:10376C0020238DF85330130744BF2B238DF853308F
:10377C009AF800302A2B15D0544600204FF00A0C32
:10378C00079A214611F8013B303B092B4ED9B0B1B9
:10379C00079214E0A0EB080309FA03F31343A246C3
:1037AC000493D2E7039B191D1B680391002BBBBF2D
:1037BC005B4242F0020207930793B8BF049223784E
:1037CC002E2B0CD163782A2B35D1039B02341A1D76
:1037DC001B680392002BB8BF4FF0FF330593DFF843
:1037EC00D8A003225046217800F0F6FA40B14023CD
:1037FC00A0EB0A0003FA00F0049B0134034304938A
:10380C0014F8011B06222D488DF8281000F0E4FA5C
:10381C0000283FD02A4B1BBB039B073323F0070325
:10382C0008330393099B3B44099367E70C4601203B
:10383C000CFB0232A5E700234FF00A0C19460134A9
:10384C000593204610F8012B303A092A03D9002B96
:10385C00C5D00591C3E7044601230CFB0121F0E719
:10386C0003AB00932A463046164B04A9AFF30080F5
:10387C000746781CD6D16B6ED90705D4AB899A054F
:10388C0002D4A86DFFF785FDAB895B063FF512AF3F
:10389C00099811E703AB00932A463046094B04A95B
:1038AC0000F082F8E4E700BFE4400008044100089F
:1038BC00C4400008244100082A4100082E41000899
:1038CC00000000004F3600082DE9F04716469946D7
:1038DC008A680B6907469342B8BF1346336091F868
:1038EC0043200C46DDF820800AB101333360236895
:1038FC00990642BF336802333360256815F006051C
:10390C0006D104F1190AE36832689B1AAB4228DC31
:10391C0094F84320131E226818BF012392062DD45D
:10392C004946384604F14302C047013020D0236891
:10393C00E56803F00603042B18BF002532684FF02E
:10394C000006A36808BFAD1A226908BF25EAE57511
:10395C009342C4BF9B1AED181A34B5421AD10020F9
:10396C0008E00123524649463846C047013003D18E
:10397C004FF0FF30BDE8F0870135C4E73020E11887
:10398C0081F843005A1C94F845102244023382F803
:10399C004310C5E70123224649463846C04701304B
:1039AC00E6D00136D9E700002DE9FF470F7E91469E
:1039BC00782F80460C469A460C9D01F1430207D89D
:1039CC00622F0AD8002F00F0D980582F00F0A48065
:1039DC0004F1420584F842703AE0A7F16303152B19
:1039EC00F6D801A151F823F04D3A0008613A0008CD
:1039FC00DD390008DD390008DD390008DD39000843
:103A0C00613A0008DD390008DD390008DD390008AD
:103A1C00DD3900086F3B0008913A0008513B000863
:103A2C00DD390008DD390008913B0008DD3900085C
:103A3C00913A0008DD390008DD390008593B0008CF
:103A4C002B681A1D1B682A6004F1420584F8423069
:103A5C000123A4E020682968060601F104030AD5B5
:103A6C000E682B60002E03DA2D23764284F8433047
:103A7C000A235E4819E00E6810F0400F2B6018BF47
:103A8C0036B2EFE72B682068191D2960010601D5B5
:103A9C001E6802E04606FBD51E886F2F0CBF08235C
:103AAC000A235248002184F843106568002DA8BFF2
:103ABC002168A560A4BF21F0040121600EB9002D7E
:103ACC004DD01546B6FBF3F103FB1167C75D05F846
:103ADC00017D3746BB420E46F4D9082B0BD1236827
:103AEC00DE0708D5236961689942DEBF302305F8EB
:103AFC00013C05F1FF35521B22614B4621464046E5
:103B0C00CDF800A003AAFFF7DFFE01304CD14FF037
:103B1C00FF3004B0BDE8F087344881F8457029685F
:103B2C00236851F8046B29601D0614D5DF0744BFC8
:103B3C0043F0200323601EB9236823F02003236085
:103B4C001023AFE7236843F0200323607823284831
:103B5C0084F84530E3E7590648BFB6B2E6E71546A8
:103B6C00BBE72B682668181D6169286035061B6841
:103B7C0001D5196002E07006FBD5198000231546AB
:103B8C002361BAE72B6800211A1D2A601D68626840
:103B9C00284600F021F908B1401B6060636823617E
:103BAC00002384F84330A8E72A4649464046236957
:103BBC00D0470130ABD023689B0713D4E068039B3C
:103BCC009842B8BF1846A4E70123324649464046FE
:103BDC00D04701309BD00135E36803995B1AAB42A7
:103BEC00F2DCEBE7002504F11906F5E73541000896
:103BFC004641000870B50D461446064618B1836957
:103C0C000BB9FFF727FB1C4B9C4224D17468636EE5
:103C1C00D80705D4A389990502D4A06DFFF7B8FB8A
:103C2C00A368013B002BA36005DAA26993421CDB5D
:103C3C00EBB20A2B19D023685A1C22601D70EDB20E
:103C4C00636EDA0705D4A3899B0502D4A06DFFF738
:103C5C00A0FB284670BD094B9C4201D1B468D6E745
:103C6C00074B9C4208BFF468D1E7294622463046F0
:103C7C00FFF71AF90546E3E7E440000804410008A1
:103C8C00C440000838B50023054D044608462B6097
:103C9C00FDF76EF8431C02D12B6803B1236038BDCD
:103CAC00E80E002010B50C46B1F90E1000F0AEF87D
:103CBC000028ABBF636DA3891B1823F48053ACBFE2
:103CCC006365A38110BD2DE9F0411F468B89054624
:103CDC00DB050C46164605D502230022B1F90E1061
:103CEC0000F068F8A389324623F48053A381284658
:103CFC003B46B4F90E10BDE8F04100F017B810B512
:103D0C000C46B1F90E1000F055F8431CA38915BFF1
:103D1C00606523F4805343F48053A38118BFA381BF
:103D2C0010BDB1F90E1000F013B8000038B5044600
:103D3C00084611460022054D2A601A46FDF77AF80E
:103D4C00431C02D12B6803B1236038BDE80E002060
:103D5C0038B50023054D044608462B60FCF7D7FF09
:103D6C00431C02D12B6803B1236038BDE80E002040
:103D7C0038B50023064D0446084611462B60FCF767
:103D8C00D1FF431C02D12B6803B1236038BD00BFA7
:103D9C00E80E002038B50023054D044608462B607C
:103DAC00FCF7CFFF431C02D12B6803B1236038BD55
:103DBC00E80E002038B50446084611460022054D91
:103DCC002A601A46FCF7C7FF431C02D12B6803B1CB
:103DDC00236038BDE80E0020034610B5C9B202447A
:103DEC009342184601D1002003E0047801338C4241
:103DFC00F6D110BD0148FFF7CBBA00BFDC0E002096
:103E0C000148FFF7C6BA00BFDC0E002038B50446E7
:103E1C00084611460022054D2A601A46FCF75AFF47
:103E2C00431C02D12B6803B1236038BDE80E00207F
:103E3C00F8B506460F4600F01FF8324604460D460C
:103E4C003B4630463946FCF7D1FD90B900220023A1
:103E5C0030463946FCF7A2FD58B1FEF753FF21233B
:103E6C0000220360002310461946FCF74FFC044661
:103E7C000D4620462946F8BDDFF858C12DE9F04122
:103E8C003CEA010C06460D460C460A46074603461C
:103E9C000FD102460B46FCF70FFB02460B46304691
:103EAC002946FCF753F906460D4630462946BDE82F
:103EBC00F08100290EDC21F0004C5CEA0707F4D0FD
:103ECC0041B102460B46FCF73FF902460B46FCF7A4
:103EDC001DFCE8E7211575D0CC074FF00004C2F3A8
:103EEC001302A1F2FF3742F480125EBFD90F5B00C0
:103EFC0001EB4202D90F01EB4202162520464FF48A
:103F0C0000117F105B0046189642DEBF921B7018A2
:103F1C0064185200013D02EBD3724FEA51014FEA93
:103F2C004303F0D129464FF0200E4FF00046824259
:103F3C0006EB050C02DC13D19C4511D8BCF1000F2B
:103F4C000CEB060543DA002D41DB00F10108121AD7
:103F5C0040469C4588BF02F1FF32A3EB0C03314471
:103F6C004FEAD37CBEF1010E0CEB42024FEA430345
:103F7C004FEA5606DBD1134306D0481C0BBF7146E3
:103F8C000131013421F001016310490803F17F5321
:103F9C00E20703F5001348BF41F000410E4603EB66
:103FAC00075582E7DA0A15385B05002AFAD0D502E4
:103FBC000AD5C1F1200423FA04F44D1E8B40224390
:103FCC00411B89E70846F0E752000131EFE78046D4
:103FDC00BDE700BF0000F07FF8B500BFF8BC08BC1F
:103FEC009E467047F8B500BFF8BC08BC9E467047AB
:103FFC0048617264204661756C740000506F73697F
:10400C0074696F6E202020203A2025640A0000007D
:10401C005072696D65202020202020203A202564D4
:10402C000A00000050616C6C696E64726F6D6520E3
:10403C003A2025640A00000050616C6C696E647251
:10404C006F6D65203A202E2E2E2E2E0A00000000B9
:10405C00506F736974696F6E093A2025640A000009
:10406C005072696D65202020202020203A202E2EB1
:10407C002E2E2E0A00000000496E697469616C696D
:10408C007A696E672E2E2E000000000000000000E2
:10409C0001020304060708090000000001020304E2
:1040AC0002030405060708090A0B0C0D0E0F10106D
:1040BC000102000050000020000000000000000081
:1040CC0000000000000000000000000000000000E4
:1040DC0000000000000000000000000000000000D4
:1040EC0000000000000000000000000000000000C4
:1040FC0000000000000000000000000000000000B4
:10410C0000000000000000000000000000000000A3
:10411C000000000000000000232D302B2000686CF4
:10412C004C006566674546470030313233343536CE
:10413C003738394142434445460030313233343507
:0C414C0036373839616263646566000034
:044158003101000829
:04415C000D01000849
:104160000024F400FFFFFFFFAD1400082515000830
:1041700059180008BD180008211900088519000801
:10418000CD190008291A00085D1A0008751A0008E0
:104190008D1A0008ED1A000831180008A117000850
:1041A000C9170008100000000100000050000020A6
:1041B00000000000E440000804410008C44000087A
:1041C00000000000000000000000000000000000EF
:1041D00000000000000000000000000000000000DF
:1041E00000000000000000000000000000000000CF
:1041F00000000000000000000000000000000000BF
:1042000000000000000000000000000000000000AE
:0400000508000DF5ED
:00000001FF
