:020000040800F2
:10000000005000209104000859030008790D0008F1
:100010005F030008650300086B0300080000000090
:10002000000000000000000000000000890D000832
:1000300071030008000000009D0D0008B10D0008CC
:10004000D9040008D9040008D9040008D90400081C
:10005000D9040008D9040008D9040008D90400080C
:10006000D9040008D9040008D9040008D9040008FC
:10007000D9040008D9040008D9040008D9040008EC
:10008000D9040008D9040008D9040008D9040008DC
:10009000D9040008D9040008D9040008D9040008CC
:1000A000D9040008D9040008D9040008D9040008BC
:1000B000D9040008D9040008D9040008D9040008AC
:1000C000D9040008D9040008D9040008D90400089C
:1000D000D9040008D9040008D9040008D90400088C
:1000E000D9040008D9040008D90400080000000061
:1000F0000000000000000000000000000000000000
:0C01000000000000000000005FF808F1A3
:10010C0010B5054C237833B9044B13B10448AFF345
:10011C0000800123237010BDB000002000000000FF
:10012C00A431000808B5034B1BB103490348AFF3D6
:10013C00008008BD00000000B4000020A4310008BD
:10014C0080B500AF00F018FF00F007F800F074F86D
:10015C0000F048F800F0D4FEFEE780B590B000AF98
:10016C0007F1180328220021184602F005F83B1D60
:10017C0000221A605A609A60DA601A610123BB612E
:10018C004FF48033FB6100233B620123BB620223EB
:10019C007B634FF48033BB634FF4E013FB6307F1D5
:1001AC001803184601F0D6F90346002B01D000F0D5
:1001BC0065F80F237B600223BB600023FB604FF4C8
:1001CC0080633B6100237B613B1D0221184601F0DB
:1001DC0043FC0346002B01D000F050F800BF403721
:1001EC00BD4680BD80B500AF114B124A1A60104B52
:1001FC004FF4E1325A600E4B00229A600C4B0022F5
:10020C00DA600B4B00221A61094B0C225A61084B25
:10021C0000229A61064B0022DA61054801F0AAFD22
:10022C000346002B01D000F029F800BF80BD00BFB1
:10023C00CC0000200038014080B483B000AF0E4BDE
:10024C009B690D4A43F0200393610B4B9B6903F0B0
:10025C0020037B607B68084B9B69074A43F00403CF
:10026C009361054B9B6903F004033B603B6800BF43
:10027C000C37BD4680BC70470010024080B400AF04
:10028C0072B600BFFEE7000080B483B000AF0E4B27
:10029C009B690D4A43F0010393610B4B9B6903F07F
:1002AC0001037B607B68084BDB69074A43F0805392
:1002BC00D361054BDB6903F080533B603B6800BFA7
:1002CC000C37BD4680BC70470010024080B588B02A
:1002DC0000AF786007F1100300221A605A609A6030
:1002EC00DA607B681B68164A934224D1154B9B69D4
:1002FC00144A43F480439361124B9B6903F480438B
:10030C00FB60FB680F4B9B690E4A43F0040393613F
:10031C000C4B9B6903F00403BB60BB684FF4007388
:10032C003B6112237B610323FB6107F11003194628
:10033C00054800F08BFF00BF2037BD4680BD00BFD5
:10034C0000380140001002400008014080B400AFAA
:10035C00FEE780B400AFFEE780B400AFFEE780B4E8
:10036C0000AFFEE780B400AF00BFBD4680BC704755
:10037C0080B586B000AFF860B9607A6000237B610D
:10038C000AE0AFF300800146BB685A1CBA60CAB2DF
:10039C001A707B6901337B617A697B689A42F0DB66
:1003AC007B6818461837BD4680BD80B483B000AF5B
:1003BC0078604FF0FF3318460C37BD4680BC704751
:1003CC0080B483B000AF786039603B684FF4005262
:1003DC005A60002318460C37BD4680BC704780B469
:1003EC0083B000AF7860012318460C37BD4680BC43
:1003FC00704780B485B000AFF860B9607A600023B4
:10040C0018461437BD4680BC7047000080B586B0D6
:10041C0000AF7860144A154BD31A7B617B693B6142
:10042C00134B1B68002B02D1114B124A1A60104B54
:10043C001A687B6813443A699A4207D201F072FE3B
:10044C0003460C221A604FF0FF3309E0084B1B687F
:10045C00FB60074B1A687B681344054A1360FB6802
:10046C0018461837BD4680BD00500020000400001F
:10047C0014010020F80E002080B400AF00BFBD4670
:10048C0080BC7047FFF7F8FF0B480C490C4A00235F
:10049C0002E0D458C4500433C4188C42F9D3094A2E
:1004AC00094C002301E013600432A242FBD301F09B
:1004BC003FFEFFF745FE704700000020B000002013
:1004CC00FC320008B0000020F40E0020FEE7000013
:1004DC0080B483B000AF03463960FB7197F90730E5
:1004EC00002B0ADB3B68DAB20C4997F90730120192
:1004FC00D2B20B4483F800230AE03B68DAB2084915
:10050C00FB7903F00F03043B1201D2B20B441A76B1
:10051C0000BF0C37BD4680BC704700BF00E100E057
:10052C0000ED00E080B400AF044B00221A60034BD6
:10053C001B680133014A1360F9E700BFD4020020A5
:10054C0080B487B000AFF860B9607A603B60FB683C
:10055C007B61FB68D8B263497A691346DB001344AC
:10056C009B000B4402461A705E497A691346DB0005
:10057C0013449B000B4404337A681A6059497A6916
:10058C001346DB0013449B000B4408333A681A6093
:10059C0054497A691346DB0013449B000B44143313
:1005AC00BA681A604F497A691346DB0013449B0002
:1005BC000B44103301221A704A497A691346DB0046
:1005CC0013449B000B441C333A6A1A6045497A6900
:1005DC001346DB0013449B000B4420337A6A1A60E9
:1005EC003B689B007A6813443B613B69043B3B616D
:1005FC003B694FF080721A603B69043B3B61BA68FF
:10060C003B691A603B69043B3B613B696FF002023A
:10061C001A603B69043B3B613B694FF012321A6034
:10062C003B69043B3B613B694FF003321A603B6909
:10063C00043B3B613B694FF002321A603B69043B5F
:10064C003B617A6A3B691A603B69043B3B613A6ADD
:10065C003B691A603B69043B3B613B694FF01132CB
:10066C001A603B69043B3B613B694FF010321A60E6
:10067C003B69043B3B613B694FF009321A603B69B3
:10068C00043B3B613B694FF008321A603B69043B09
:10069C003B613B694FF007321A603B69043B3B619D
:1006AC003B694FF006321A603B69043B3B613B6986
:1006BC004FF005321A603B69043B3B613B694FF0DC
:1006CC0004321A60396907487A691346DB0013440F
:1006DC009B0003440C33196000BF1C37BD4680BC23
:1006EC00704700BF1801002080B588B002AFF860D9
:1006FC00B9607A603B60184B01221A7001237B6150
:10070C000DE016497A691346DB0013449B000B4439
:10071C001B78DBB2002B06D07B6901337B617B69D4
:10072C00042BEEDD00E000BF7B69042B02DD4FF0F3
:10073C00FF330DE03B6A01933B6800937B68BA681A
:10074C00F9687869FFF7FCFE034B00221A707B698D
:10075C0018461837BD4680BDD00100201801002076
:10076C0080B584B002AF0023019300230093402393
:10077C00174A18490020FFF7E3FEFF216FF0010034
:10078C00FFF7A6FE144BDB687B607B68184680F392
:10079C000988EFF3148040F0020080F31488EFF323
:1007AC00148040F0010080F314880C4B00221A6076
:1007BC007B6838331B683B60074BDA69064B196A58
:1007CC003B681046984700BF0837BD4680BD00BF48
:1007DC00D40100203105000818010020040000207D
:1007EC00F0B585B002AF624B1B78DBB2002B40F04A
:1007FC00BA80604B00221A60A8E05F4B1B68591C42
:10080C005E4B83FB01235A10CB17D21A13469B0065
:10081C001344CA1A584B1A60574B1A685849134656
:10082C00DB0013449B000B441B78DBB2002B00F065
:10083C00838000F0F9FB01464F4B1A685048134671
:10084C00DB0013449B00034418331B68994275D991
:10085C00494B1A684A491346DB0013449B000B446E
:10086C0010331B78DBB2022B0AD1434B1A68444974
:10087C001346DB0013449B000B4400221A7060E00B
:10088C003D4B1A683E491346DB0013449B000B4456
:10089C0010331B78DBB2032B3DD1374B1868364B2A
:1008AC001A6837491346DB0013449B000B4414337E
:1008BC001C68314B1A6832491346DB0013449B0009
:1008CC000B4404331D682C4B1A682D491346DB006E
:1008DC0013449B000B4408331E68274B1A682849A5
:1008EC001346DB0013449B000B441C331968224B4A
:1008FC001A68234B7B601346DB0013449B007A6819
:10090C00134420331B680193009133462A46214639
:10091C00FFF716FE0CE0184B1A6819491346DB005A
:10092C0013449B000B4410331B78DBB2002B07D015
:10093C00104B00221A600EE000BF02E000BF00E086
:10094C0000BF0C4B1B6801330A4A1360094B1B6830
:10095C00052B7FF752AF074B1B68002B04DD064BB2
:10096C0000221A6000E000BF0C37BD46F0BD00BF8E
:10097C00D0010020CC0100200400002067666666D0
:10098C001801002080B400AF064B1B68002B05DB60
:10099C00054B5B68044A43F08053536000BFBD466F
:1009AC0080BC70470400002000ED00E0BDE88040F2
:1009BC0000B5EFF3098020E9F00F104B1A680146DF
:1009CC000F481346DB0013449B0003440C3319609F
:1009DC00FFF706FF094B1A6809491346DB0013445D
:1009EC009B000B440C331B681846B0E8F00F80F3E7
:1009FC0009885DF804EB00BF704700BF04000020BD
:100A0C001801002080B400AF00DF00BFBD4680BCE1
:100A1C007047000080B400AF064B1B68002B05DB51
:100A2C00054B5B68044A43F08053536000BFBD46DE
:100A3C0080BC70470400002000ED00E080B582B05F
:100A4C0000AF7860154B01221A707B68002B02D125
:100A5C00134B1B687B607B68002B0CDD7B68042BC5
:100A6C0009DC10497A681346DB0013449B000B44E5
:100A7C00103302221A70094B00221A707B68002B6B
:100A8C0004D1074B1B687A689A4202D1FFF7BAFF70
:100A9C0000E000BF0837BD4680BD00BFD00100207C
:100AAC00040000201801002080B582B000AF7860EF
:100ABC00154B01221A707B68002B02D1134B1B685B
:100ACC007B607B68002B0CDD7B68042B09DC1049F8
:100ADC007A681346DB0013449B000B44103303224B
:100AEC001A70094B00221A707B68002B04D1074B3B
:100AFC001B687A689A4202D1FFF784FF00E000BFBE
:100B0C000837BD4680BD00BFD00100200400002086
:100B1C001801002080B582B000AF7860154B01221F
:100B2C001A707B68002B02D1134B1B687B607B68AF
:100B3C00002B0CDD7B68042B09DC10497A6813460A
:100B4C00DB0013449B000B44103300221A70094B3A
:100B5C0000221A707B68002B04D1074B1B687A6843
:100B6C009A4202D1FFF74EFF00E000BF0837BD46A6
:100B7C0080BD00BFD001002004000020180100201F
:100B8C0080B483B000AF78600D4B01221A707B6883
:100B9C00002B0CDD7B68042B09DC0A497A681346B0
:100BAC00DB0013449B000B44103301221A70044BDE
:100BBC0000221A7000BF0C37BD4680BC704700BFC6
:100BCC00D00100201801002080B582B000AF786001
:100BDC00114B01221A70114B1B68002B12DD0F4BAD
:100BEC001B68042B0EDC00F01FFA01460B4B1A6835
:100BFC007B6819440A481346DB0013449B000344EA
:100C0C0018331960044B00221A70FFF7FBFE00BF6B
:100C1C000837BD4680BD00BFD00100200400002075
:100C2C00180100200FB480B582B000AF094B01222F
:100C3C001A7007F114037B607968386901F01AFBAC
:100C4C00044B00221A7000BF0837BD46BDE8804037
:100C5C0004B07047D001002080B400AF034B0122D8
:100C6C001A7000BFBD4680BC704700BFD001002089
:100C7C0080B400AF034B00221A7000BFBD4680BC8D
:100C8C00704700BFD001002080B582B000AF786003
:100C9C00124B01221A707B68002B16D0104B1B686C
:100CAC00002B12DD0E4B1B68042B0EDC0C4B1A6850
:100CBC007B681A600A4B1A680A491346DB00134416
:100CCC009B000B44103300221A70044B00221A7044
:100CDC00FFF798FE00BF0837BD4680BDD00100204D
:100CEC00040000201801002080B483B000AF7860AD
:100CFC000D4B01221A707B68002B0CDD7B68042BDA
:100D0C0009DC0A497A681346DB0013449B000B4448
:100D1C00103301221A70044B00221A7000BF0C37DA
:100D2C00BD4680BC704700BFD001002018010020D8
:100D3C0080B584B000AFF860B9607A60094B1B6A6B
:100D4C0098477B689AB24FF0FF33B968064801F0B8
:100D5C0069F8044B5B6A98477B6818461037BD46A8
:100D6C0080BD00BF08000020CC00002080B500AF83
:100D7C00014801F077FAFEE7BC31000880B500AFFE
:100D8C00024B1B6B984700BF80BD00BF08000020C2
:100D9C0080B500AF024B9B6B984700BF80BD00BF76
:100DAC000800002080B500AF00F02CF9024B5B6B03
:100DBC00984700BF80BD00BF0800002080B586B0FA
:100DCC0000AF786039603B681B683B613B685B68CF
:100DDC00FB603B689B68BB60BB6800221A60002309
:100DEC007B6111E00E4B9B694FF4FA709847BB681E
:100DFC001A687B699B00F9680B441B681A44BB6832
:100E0C001A607B6901337B617A693B699A42E9DB41
:100E1C00034B9B680020984700BF1837BD4680BD28
:100E2C0008000020B0B592B002AF786039601A4B60
:100E3C00DC693B687A6819491948A0470023FB63B1
:100E4C00184B07F114041D460FCD0FC40FCD0FC462
:100E5C0095E8030084E803000A23BB6007F1140340
:100E6C00FB6007F13C033B610B4B1C6807F108036B
:100E7C00009303234FF480720B490C48A047064B98
:100E8C00DB69FA6B05490A489847034B9B694FF499
:100E9C007A709847F3E700BF08000020383200084A
:100EAC00C8310008E8310008E00A0020C90D00082C
:100EBC00DC31000890B585B000AF786039600C4B20
:100ECC00DC693B687A680B490B48A0470023FB6040
:100EDC00FB680133FB60064BDB69FA680549074880
:100EEC009847034B9B694FF47A709847F0E700BF23
:100EFC000800002040320008C8310008DC3100082E
:100F0C0090B583B002AF144801F0ACF940F6B8309C
:100F1C0000F094F8114B1C680023009300234FF44D
:100F2C0080720F490F48A04703460F4A13600B4BC2
:100F3C001C680023009300234FF480720B490C486B
:100F4C00A04703460B4A1360044B5B68984700BFED
:100F5C000437BD4690BD00BF1032000808000020C9
:100F6C00E0020020310E0008D8020020E00600202C
:100F7C00C10E0008DC02002080B500AF084B1B68D6
:100F8C00074A43F010031360032000F02BF90F20E5
:100F9C0000F008F8FFF778F90023184680BD00BF71
:100FAC000020024080B582B000AF7860124B1A6806
:100FBC00124B1B7819464FF47A73B3FBF1F3B2FB67
:100FCC00F3F3184600F035F90346002B01D001234A
:100FDC000EE07B680F2B0AD8002279684FF0FF30A7
:100FEC0000F00BF9064A7B681360002300E0012334
:100FFC0018460837BD4680BD000000204800002080
:10100C004400002080B400AF054B1B781A46054BFA
:10101C001B681344034A136000BFBD4680BC704775
:10102C0048000020E00E002080B400AF024B1B688B
:10103C001846BD4680BC7047E00E002080B584B0D9
:10104C0000AF7860FFF7F0FFB8607B68FB60FB686F
:10105C00B3F1FF3F05D00A4B1B781A46FB681344CB
:10106C00FB6000BFFFF7E0FF0246BB68D31AFA68CB
:10107C009A42F7D800BF00BF1037BD4680BD00BFF5
:10108C004800002080B485B000AF78607B6803F026
:10109C000703FB600C4BDB68BB60BA684FF6FF03C1
:1010AC001340BB60FB681A02BB68134343F0BF6379
:1010BC0043F40033BB60044ABB68D36000BF1437F1
:1010CC00BD4680BC704700BF00ED00E080B400AFAF
:1010DC00044BDB681B0A03F007031846BD4680BCB3
:1010EC00704700BF00ED00E080B483B000AF034652
:1010FC003960FB7197F90730002B0ADB3B68DAB2D9
:10110C000C4997F907301201D2B20B4483F8002333
:10111C000AE03B68DAB20849FB7903F00F03043BA1
:10112C001201D2B20B441A7600BF0C37BD4680BCFC
:10113C00704700BF00E100E000ED00E080B489B032
:10114C0000AFF860B9607A60FB6803F00703FB61DD
:10115C00FB69C3F10703042B28BF0423BB61FB69A4
:10116C000433062B02D9FB69033B00E000237B61AF
:10117C004FF0FF32BB6902FA03F3DA43BB681A4043
:10118C007B699A404FF0FF317B6901FA03F3D94335
:10119C007B680B40134318462437BD4680BC704710
:1011AC0080B582B000AF78607B68013BB3F1807F83
:1011BC0001D301230FE00A4A7B68013B53600F21E6
:1011CC004FF0FF30FFF790FF054B00229A60044B65
:1011DC0007221A60002318460837BD4680BD00BFA1
:1011EC0010E000E080B582B000AF78607868FFF75F
:1011FC0049FF00BF0837BD4680BD80B586B000AF43
:10120C000346B9607A60FB7300237B61FFF75EFFD6
:10121C0078617A68B9687869FFF790FF024697F9A8
:10122C000F3011461846FFF75FFF00BF1837BD4659
:10123C0080BD80B582B000AF78607868FFF7B0FFF2
:10124C00034618460837BD4680BD000080B48BB0FD
:10125C0000AF7860396000237B6200233B6269E158
:10126C0001227B6A02FA03F3FB613B681B68FA6993
:10127C001340BB61BA69FB699A4240F058813B68E4
:10128C005B689A4A93425ED0984A934275D8984AC2
:10129C00934258D0964A93426FD8964A934252D072
:1012AC00944A934269D8944A93424CD0924A9342BE
:1012BC0063D8924A934246D0904A93425DD8122BFF
:1012CC002AD8122B59D801A252F823F05313000834
:1012DC002D1300083F130008811300088713000822
:1012EC00871300088713000887130008871300086A
:1012FC00871300088713000887130008871300085A
:10130C008713000887130008871300088713000849
:10131C003513000849130008794A934213D02CE086
:10132C003B68DB683B6229E03B68DB6804333B626B
:10133C0024E03B68DB6808333B621FE03B68DB68FA
:10134C000C333B621AE03B689B68002B02D10423F0
:10135C003B6213E03B689B68012B05D108233B6281
:10136C007B68FA691A6109E008233B627B68FA69B9
:10137C005A6103E000233B6200E000BFBB69FF2B16
:10138C0001D87B6801E07B6804337B61BB69FF2B70
:10139C0002D87B6A9B0002E07B6A083B9B003B61A6
:1013AC007B691A680F213B6901FA03F3DB431A408E
:1013BC00396A3B6901FA03F31A437B691A603B688B
:1013CC005B6803F08053002B00F0B1804D4B9B69A0
:1013DC004C4A43F0010393614A4B9B6903F00103B0
:1013EC00BB60BB68484A7B6A9B08023352F82330C7
:1013FC00FB607B6A03F003039B000F2202FA03F3EA
:10140C00DB43FA681340FB607B68404A934213D07D
:10141C007B683F4A93420DD07B683E4A934207D08B
:10142C007B683D4A934201D1032306E0042304E088
:10143C00022302E0012300E000237A6A02F0030297
:10144C0092009340FA681343FB602F497B6A9B0818
:10145C000233FA6841F823203B685B6803F480137D
:10146C00002B06D02D4B9A682C49BB6913438B601B
:10147C0006E02A4B9A68BB69DB43284913408B6012
:10148C003B685B6803F40013002B06D0234BDA682F
:10149C002249BB691343CB6006E0204BDA68BB6979
:1014AC00DB431E491340CB603B685B6803F400339D
:1014BC00002B06D0194B5A681849BB6913434B6073
:1014CC0006E0164B5A68BB69DB43144913404B606A
:1014DC003B685B6803F48033002B21D00F4B1A68F8
:1014EC000E49BB6913430B6021E000BF00003210B2
:1014FC00000031100000221000002110000012101A
:10150C0000001110001002400000014000080140D2
:10151C00000C014000100140001401400004014087
:10152C000B4B1A68BB69DB43094913400B607B6AA0
:10153C0001337B623B681A687B6A22FA03F3002B47
:10154C007FF48EAE00BF00BF2C37BD4680BC704709
:10155C000004014080B586B000AF78607B68002B3A
:10156C0001D1012372E27B681B6803F00103002B9D
:10157C0000F08780924B5B6803F00C03042B0CD0BB
:10158C008F4B5B6803F00C03082B12D18C4B5B6800
:10159C0003F48033B3F5803F0BD1894B1B6803F404
:1015AC000033002B6CD07B685B68002B68D1012367
:1015BC004CE27B685B68B3F5803F06D1804B1B68BF
:1015CC007F4A43F4803313602EE07B685B68002B0A
:1015DC000CD17B4B1B687A4A23F480331360784B15
:1015EC001B68774A23F4802313601DE07B685B68DB
:1015FC00B3F5A02F0CD1724B1B68714A43F48023B6
:10160C0013606F4B1B686E4A43F4803313600BE01E
:10161C006B4B1B686A4A23F480331360684B1B685E
:10162C00674A23F4802313607B685B68002B13D01C
:10163C00FFF7FAFC386108E0FFF7F6FC02463B695D
:10164C00D31A642B01D9032300E25D4B1B6803F40E
:10165C000033002BF0D014E0FFF7E6FC386108E013
:10166C00FFF7E2FC02463B69D31A642B01D9032332
:10167C00ECE1534B1B6803F40033002BF0D100E07A
:10168C0000BF7B681B6803F00203002B63D04C4B3C
:10169C005B6803F00C03002B0BD0494B5B6803F029
:1016AC000C03082B1CD1464B5B6803F48033002BD6
:1016BC0016D1434B1B6803F00203002B05D07B684B
:1016CC001B69012B01D00123C0E13D4B1B6823F0AA
:1016DC00F8027B685B69DB00394913430B603AE025
:1016EC007B681B69002B20D0364B01221A60FFF758
:1016FC009BFC386108E0FFF797FC02463B69D31A64
:10170C00022B01D90323A1E12D4B1B6803F002032B
:10171C00002BF0D02A4B1B6823F0F8027B685B6926
:10172C00DB00274913430B6015E0264B00221A609F
:10173C00FFF77AFC386108E0FFF776FC02463B695C
:10174C00D31A022B01D9032380E11D4B1B6803F034
:10175C000203002BF0D17B681B6803F00803002BFD
:10176C003AD07B689B69002B19D0174B01221A6069
:10177C00FFF75AFC386108E0FFF756FC02463B695C
:10178C00D31A022B01D9032360E10D4B5B6A03F0E2
:10179C000203002BF0D0012000F0CEFA1CE00A4B23
:1017AC0000221A60FFF740FC38610FE0FFF73CFCA9
:1017BC0002463B69D31A022B08D9032346E100BF2A
:1017CC00001002400000424280044242924B5B6A8D
:1017DC0003F00203002BE9D17B681B6803F00403C0
:1017EC00002B00F0A6800023FB758B4BDB6903F00C
:1017FC008053002B0DD1884BDB69874A43F0805313
:10180C00D361854BDB6903F08053BB60BB6801235C
:10181C00FB75824B1B6803F48073002B18D17F4B34
:10182C001B687E4A43F480731360FFF7FDFB38613D
:10183C0008E0FFF7F9FB02463B69D31A642B01D988
:10184C00032303E1754B1B6803F48073002BF0D06A
:10185C007B68DB68012B06D16F4B1B6A6E4A43F029
:10186C00010313622DE07B68DB68002B0CD16A4B03
:10187C001B6A694A23F001031362674B1B6A664AB1
:10188C0023F0040313621CE07B68DB68052B0CD18E
:10189C00614B1B6A604A43F0040313625E4B1B6A84
:1018AC005D4A43F0010313620BE05B4B1B6A5A4A1F
:1018BC0023F001031362584B1B6A574A23F00403AD
:1018CC0013627B68DB68002B15D0FFF7ADFB38612A
:1018DC000AE0FFF7A9FB02463B69D31A41F28832B2
:1018EC00934201D90323B1E04B4B1B6A03F0020373
:1018FC00002BEED014E0FFF797FB38610AE0FFF7FE
:10190C0093FB02463B69D31A41F28832934201D9C8
:10191C0003239BE0404B1B6A03F00203002BEED128
:10192C00FB7D012B05D13C4BDB693B4A23F08053FB
:10193C00D3617B68DB69002B00F08780364B5B68DA
:10194C0003F00C03082B61D07B68DB69022B46D1BA
:10195C00334B00221A60FFF767FB386108E0FFF792
:10196C0063FB02463B69D31A022B01D903236DE0BA
:10197C00294B1B6803F00073002BF0D17B681B6AAA
:10198C00B3F5803F08D1244B5B6823F400327B68AD
:10199C009B68214913434B601F4B5B6823F4741203
:1019AC007B68196A7B685B6A0B431B4913434B606A
:1019BC001B4B01221A60FFF737FB386108E0FFF779
:1019CC0033FB02463B69D31A022B01D903233DE0BA
:1019DC00114B1B6803F00073002BF0D035E0104B5B
:1019EC0000221A60FFF720FB386108E0FFF71CFBB0
:1019FC0002463B69D31A022B01D9032326E0064B7E
:101A0C001B6803F00073002BF0D11EE07B68DB69D0
:101A1C00012B07D1012319E0001002400070004097
:101A2C00600042420B4B5B68FB60FB6803F4803246
:101A3C007B681B6A9A4206D1FB6803F470127B68C0
:101A4C005B6A9A4201D0012300E000231846183744
:101A5C00BD4680BD0010024080B584B000AF7860F8
:101A6C0039607B68002B01D10123D0E06A4B1B68E5
:101A7C0003F007033A689A4210D9674B1B6823F0AE
:101A8C00070265493B6813430B60634B1B6803F00B
:101A9C0007033A689A4201D00123B8E07B681B68BF
:101AAC0003F00203002B20D07B681B6803F00403B7
:101ABC00002B05D0594B5B68584A43F4E0635360E4
:101ACC007B681B6803F00803002B05D0534B5B6845
:101ADC00524A43F460535360504B5B6823F0F0025E
:101AEC007B689B684D4913434B607B681B6803F014
:101AFC000103002B40D07B685B68012B07D1474B5F
:101B0C001B6803F40033002B15D101237FE07B68A5
:101B1C005B68022B07D1414B1B6803F00073002B51
:101B2C0009D1012373E03D4B1B6803F00203002B2A
:101B3C0001D101236BE0394B5B6823F003027B6816
:101B4C005B68364913434B60FFF76EFAF8600AE0A6
:101B5C00FFF76AFA0246FB68D31A41F288329342C5
:101B6C0001D9032353E02D4B5B6803F00C027B6817
:101B7C005B689B009A42EBD1274B1B6803F0070371
:101B8C003A689A4210D2244B1B6823F00702224970
:101B9C003B6813430B60204B1B6803F007033A6848
:101BAC009A4201D0012332E07B681B6803F00403E6
:101BBC00002B08D0194B5B6823F4E0627B68DB6870
:101BCC00164913434B607B681B6803F00803002B1A
:101BDC0009D0124B5B6823F460527B681B69DB00F5
:101BEC000E4913434B6000F021F802460B4B5B6827
:101BFC001B0903F00F030A49CB5C22FA03F3094AD1
:101C0C001360094B1B681846FFF7CCF900231846E4
:101C1C001037BD4680BD00BF0020024000100240BE
:101C2C0020320008000000204400002080B487B05F
:101C3C0000AF0023FB600023BB6000237B6100230B
:101C4C007B6000233B611E4B5B68FB60FB6803F011
:101C5C000C03042B02D0082B03D027E0194B3B615B
:101C6C0027E0FB689B0C03F00F03174AD35C7B60E7
:101C7C00FB6803F48033002B10D0114B5B685B0CBA
:101C8C0003F00103114AD35CBB607B680D4A03FB74
:101C9C0002F2BB68B2FBF3F37B6104E07B680C4A95
:101CAC0002FB03F37B617B693B6102E0054B3B610B
:101CBC0000BF3B6918461C37BD4680BC704700BF4F
:101CCC000010024000127A00483200085832000816
:101CDC0000093D0080B400AF024B1B681846BD469E
:101CEC0080BC70470000002080B500AFFFF7F2FF0A
:101CFC000246054B5B681B0A03F007030349CB5CE8
:101D0C0022FA03F3184680BD00100240303200085E
:101D1C0080B500AFFFF7DEFF0246054B5B68DB0AC0
:101D2C0003F007030349CB5C22FA03F3184680BD8A
:101D3C00001002403032000880B485B000AF7860EB
:101D4C000A4B1B680A4AA2FB03235B0A7A6802FB54
:101D5C0003F3FB6000BFFB685A1EFA60002BF9D13D
:101D6C0000BF00BF1437BD4680BC70470000002088
:101D7C00D34D621080B582B000AF78607B68002BC9
:101D8C0001D101234AE07B6893F84130DBB2002B90
:101D9C0006D17B68002283F840207868FEF796FA1B
:101DAC007B68242283F841207B681B68DA687B6897
:101DBC001B6822F40052DA60786800F025F97B6821
:101DCC001B681A697B681B6822F490421A617B6855
:101DDC001B685A697B681B6822F022025A617B6877
:101DEC001B685A697B681B6842F008025A617B6861
:101DFC001B68DA687B681B6842F40052DA607B6807
:101E0C0000225A647B68202283F841207B682022C0
:101E1C0083F842207B6800225A6300231846083757
:101E2C00BD4680BD80B58AB002AFF860B9603B603A
:101E3C001346FB8000237B61FB6893F84130DBB2D7
:101E4C00202B6DD1BB68002B02D0FB88002B01D15D
:101E5C00012366E0FB6800225A64FB68212283F8A8
:101E6C004120FFF7E1F87861FB68FA889A84FB68F7
:101E7C00FA88DA84FB689B68B3F5805F08D1FB684D
:101E8C001B69002B04D10023FB61BB68BB6103E021
:101E9C00BB68FB610023BB612AE03B6800937B6954
:101EAC0000228021F86800F040F80346002B01D096
:101EBC00032336E0FB69002B0BD1BB691B881A4648
:101ECC00FB681B68C2F308025A60BB690233BB6132
:101EDC0007E0FB691A78FB681B685A60FB690133E1
:101EEC00FB61FB68DB8C9BB2013B9AB2FB68DA842A
:101EFC00FB68DB8C9BB2002BCFD13B6800937B69DA
:101F0C0000224021F86800F010F80346002B01D0A5
:101F1C00032306E0FB68202283F84120002300E025
:101F2C00022318462037BD4680BD80B590B000AF67
:101F3C00F860B9603B601346FB7150E0BB6CB3F1C9
:101F4C00FF3F4CD0BB6C002B07D0FFF76DF802465F
:101F5C003B68D31ABA6C9A4241D2FB681B680C33AB
:101F6C00BB62BB6A53E8003F7B627B6A23F4D0738D
:101F7C00FB63FB681B680C33FA6B7A633B63396B4E
:101F8C007A6B41E80023FB62FB6A002BE5D1FB680E
:101F9C001B6814337B617B6953E8003F3B613B69F1
:101FAC0023F00103BB63FB681B681433BA6B3A6202
:101FBC00FB61F9693A6A41E80023BB61BB69002BFC
:101FCC00E5D1FB68202283F84120FB68202283F8AE
:101FDC004220FB68002283F8402003230FE0FB68BB
:101FEC001B681A68BB681340BA689A420CBF01237D
:101FFC000023DBB21A46FB799A429FD00023184685
:10200C004037BD4680BD000080B584B000AF78601D
:10201C007B681B681B6923F440517B68DA687B681A
:10202C001B680A431A617B689A687B681B691A43B0
:10203C007B685B691343BB607B681B68DB6823F4BC
:10204C00B05323F00C037A681268B9680B43D36061
:10205C007B681B685B6923F440717B689A697B68B9
:10206C001B680A435A617B681B682C4A934203D154
:10207C00FFF74EFEF86002E0FFF736FEF860FA68F4
:10208C0013469B0013449A001A447B685B689B00C0
:10209C00B2FBF3F3224AA2FB03235B091901FA6892
:1020AC0013469B0013449A001A447B685B689B00A0
:1020BC00B2FBF3F21A4BA3FB02035B09642000FB97
:1020CC0003F3D31A1B013233154AA2FB03235B091A
:1020DC0003F0F0031944FA6813469B0013449A006A
:1020EC001A447B685B689B00B2FBF3F20C4BA3FBBE
:1020FC0002035B09642000FB03F3D31A1B01323388
:10210C00074AA2FB03235B0903F00F027B681B68E1
:10211C000A449A6000BF1037BD4680BD00380140AC
:10212C001F85EB51014B1868704700BF4C00002015
:10213C0070B500260C4D0D4C641BA410A64209D1A1
:10214C0001F02AF800260A4D0A4C641BA410A64282
:10215C0005D170BD55F8043B98470136EEE755F8AC
:10216C00043B98470136F2E7F4320008F4320008D9
:10217C00F4320008F832000803460244934200D1BE
:10218C00704703F8011BF9E770B50E46054618B108
:10219C0083690BB900F05AFAAB69AC6813B92846DD
:1021AC0000F054FA2C4B9C4220D16C68636EDB0718
:1021BC0005D4A389980502D4A06D00F0E5FAA38993
:1021CC0019071DD52369DBB1013EA36816F8011F61
:1021DC00013BA36039BB002B38DA22460A21284682
:1021EC0000F05EF8013011D00A2511E01B4B9C4227
:1021FC0001D1AC68DAE71A4B9C4208BFEC68D5E712
:10220C002146284600F09EF80028DDD04FF0FF351F
:10221C00636EDA0705D4A3899B0502D4A06D00F088
:10222C00B4FA284670BD002B04DAA2699A4206DC87
:10223C000A2904D023685A1C22601970C5E722466B
:10224C00284600F02DF80130BFD1DFE70A252368BE
:10225C005A1C22601D70DBE780320008A032000897
:10226C0060320008024B01461868FFF78DBF00BFB3
:10227C004C000020094B70B51C6805460E4624B175
:10228C00A36913B9204600F0E1F933462A462046EB
:10229C00A168BDE8704000F0E3BB00BF4C0000201B
:1022AC00F8B50E461446054618B183690BB900F013
:1022BC00CDF9214B9C422BD16C68A369A360A389F7
:1022CC001A072FD523696BB323692068F6B2C01A9D
:1022DC0063693746834204DC2146284600F022F924
:1022EC0030BBA3680130013BA36023685A1C2260F9
:1022FC001E706369834204D0A389DB0706D50A2EBE
:10230C0004D12146284600F00DF988B93846F8BDAD
:10231C000A4B9C4201D1AC68CFE7094B9C4208BFE9
:10232C00EC68CAE72146284600F00CF80028CBD010
:10233C004FF0FF37EAE700BF80320008A0320008F8
:10234C0060320008324B70B51D6806460C4625B14C
:10235C00AB6913B9284600F079F92E4B9C420FD18A
:10236C006C68A389B4F90C2019072CD4DD0611D4A0
:10237C000923336042F040034FF0FF30A3813EE06D
:10238C00254B9C4201D1AC68EBE7244B9C4208BF27
:10239C00EC68E6E7580712D5616B41B104F14403D0
:1023AC00994202D0304600F057FA00236363A389A8
:1023BC0023F02403A3810023636023692360A38992
:1023CC0043F00803A38123694BB9A38903F4207359
:1023DC00B3F5007F03D02146304600F0FDF9A0890B
:1023EC00B4F90C2010F001030AD00023A360636938
:1023FC005B42A361236943B910F08000BAD170BD70
:10240C00810758BF6369A360F4E70020F7E700BFBA
:10241C004C00002080320008A03200086032000816
:10242C008A89F8B5054610070C4657D44B68002B23
:10243C0004DC0B6C002B01DC0020F8BDE66A002EDE
:10244C00FAD0002312F480522F682B6032D0606DCA
:10245C00A3895A0705D56368C01A636B0BB1236C4B
:10246C00C01A00230246E66A2846216AB047431C7C
:10247C00A38906D129681D292CD8294ACA40D60718
:10248C0028D5002262602269D904226004D5421C3E
:10249C0001D12B6803B96065616B2F600029CBD02B
:1024AC0004F14403994202D0284600F0D5F90020EB
:1024BC006063C2E7216A01232846B047411CC7D19B
:1024CC002B68002BC4D01D2B01D0162B01D12F60F3
:1024DC00B2E7A38943F04003A381AEE70F69002F55
:1024EC00AAD0930718BF00230E6808BF4B69F61BD0
:1024FC000F608B60002E9FDD33463A462846216ADA
:10250C00D4F828C0E047002806DCA3894FF0FF3040
:10251C0043F04003A38190E70744361AEAE700BF73
:10252C000100402038B50B6905460C4613B900254F
:10253C00284638BD18B183690BB900F087F8144BE5
:10254C009C421BD16C68B4F90C30002BEFD0626E3E
:10255C00D00704D4990502D4A06D00F015F92846D3
:10256C002146FFF75DFF636E0546DA07E0D4A389C9
:10257C009B05DDD4A06D00F008F9D9E7054B9C4212
:10258C0001D1AC68DFE7044B9C4208BFEC68DAE78A
:10259C0080320008A032000860320008002310B519
:1025AC000446C0E90033C0E904338360818143668B
:1025BC00C2818361194608225C30FFF7DDFD054BB3
:1025CC0024626362044BA362044BE362044B2363F7
:1025DC0010BD00BF193000083B30000873300008F4
:1025EC0097300008014900F0AFB800BF3125000852
:1025FC00682270B54D1E55430E4605F1740100F06E
:10260C0093F9044640B10021C0E900160C30A060DB
:10261C0005F16802FFF7B0FD204670BD014800F0DF
:10262C00B3B800BFE50E0020014800F0AEB800BF03
:10263C00E50E0020014800F0A7B800BFE60E002010
:10264C00014800F0A2B800BFE60E002010B5044609
:10265C00FFF7F0FFA3691BB1BDE81040FFF7F0BF17
:10266C00C4E912332365134B134A1B68A262A342BD
:10267C0008BF0123204608BFA36100F01FF860606B
:10268C00204600F01BF8A060204600F017F800224E
:10269C000421E0606068FFF781FF01220921A06836
:1026AC00FFF77CFF02221221E068FFF777FF01237E
:1026BC00A361D1E75C320008F1250008F8B50746A4
:1026CC00FFF7ACFF1E4B1E68B36913B93046FFF71A
:1026DC00BDFF4836D6E90134013B03D533680BB353
:1026EC003668F7E7B4F90C50D5B9164B04F158001D
:1026FC00E360656600F047F8FFF796FF082229466D
:10270C00C4E90155C4E904552560A56104F15C00D8
:10271C00FFF732FDC4E90D55C4E912552046F8BD4A
:10272C006834D9E704213846FFF762FF044630606D
:10273C000028D5D1FFF778FF0C233B60EEE700BFF4
:10274C005C3200080100FFFF2DE9F843064688467D
:10275C00002700F14804D4E90195B9F1010905D528
:10276C002468002CF7D13846BDE8F883AB89012BDF
:10277C0007D9B5F90E30013303D029463046C0478E
:10278C0007436835E9E770477047704770B50E46E8
:10279C00B1F90E10144600291D4696B008DA002235
:1027AC00B6F90C302A601A0610D44FF480630EE090
:1027BC006A4600F091FC0028F1DB019A02F47042A9
:1027CC00A2F500535A425A412A60EEE740230020FA
:1027DC00236016B070BD00008B8973B59D0706464B
:1027EC000C4607D504F14703236023610123636181
:1027FC0002B070BD6A4601ABFFF7C8FF00990546F1
:10280C00304600F091F848B9B4F90C309A05EFD481
:10281C0023F0030343F00203A381E3E70D4BB36200
:10282C00A389206043F08003A381009B2061636136
:10283C00019B5BB13046B4F90E1000F05FFC28B17F
:10284C00A38923F0030343F00103A381A08905436B
:10285C00A581CDE7F125000838B50546002940D003
:10286C0051F8043C0C1F002BB8BFE41800F076FCA8
:10287C001C4A136833B9636014602846BDE83840BD
:10288C0000F072BCA34208D9206821188B4201BF0A
:10289C0019685B6809182160EDE71A465B680BB193
:1028AC00A342FAD911685018A0420BD120680144F8
:1028BC00501883421160E0D118685B6801441160C4
:1028CC005360DAE702D90C232B60D6E72068211875
:1028DC008B4201BF19685B68091821606360546002
:1028EC00CBE738BDE80E002070B50E4E0C463168B3
:1028FC00054611B900F07AFB30602146284600F0FD
:10290C0075FB431C0AD0C41C24F00304A04207D05E
:10291C00211A284600F06AFB013001D14FF0FF3438
:10292C00204670BDEC0E00202DE9F041CD1C25F0A9
:10293C00030508350C2D38BF0C25002D074601DB8F
:10294C00A94205D90C2300263B603046BDE8F08136
:10295C002E4E00F003FC33681C4634BB2946384627
:10296C00FFF7C2FF431C04464DD134682646002EA7
:10297C0040D123683146384604EB030800F036FB9F
:10298C0080453AD1216803356D1A25F003050835C9
:10299C000C2D38BF0C2538462946FFF7A5FF013012
:1029AC002BD023682B4423600EE02268521B1ED4CC
:1029BC000B2A16D96119A342256018BF59606368A8
:1029CC0008BF316062514B60384604F10B0600F0D1
:1029DC00CBFB26F00706231DF21AB6D09B1BA35087
:1029EC00B3E76268A3420CBF32605A60ECE723463F
:1029FC006468B2E734467668B9E70C2338463B6026
:102A0C0000F0B2FBA1E72560DEE700BFE80E002076
:102A1C00936810B4013B002B936007DA9469A342CE
:102A2C0001DB0A2902D110BCFFF73ABC1368581C11
:102A3C0010601970084610BC7047F8B506460F4672
:102A4C001446D518AC4201D1002007E03A46304676
:102A5C0014F8011BFFF7DCFF431CF3D1F8BD000099
:102A6C002DE9F04F0D461446984606469DB018B118
:102A7C0083690BB9FFF7EAFD894B9D421BD1756841
:102A8C006B6ED90705D4AB899A0502D4A86DFFF7F4
:102A9C007BFEAB891B0701D52B69EBB92946304668
:102AAC00FFF750FCC0B16B6EDC070ED54FF0FF305A
:102ABC001DB0BDE8F08F7B4B9D4201D1B568DFE7BF
:102ACC00794B9D4208BFF568DAE7AB899805EDD4E0
:102ADC00A86DFFF75AFEE9E70023099320238DF830
:102AEC00293030234FF00109CDF80C80DFF8BC8180
:102AFC008DF82A3023469A4613F8012B0AB1252A61
:102B0C00F9D1BAEB040B0BD05B4622462946304672
:102B1C00FFF793FF013000F0AA80099A5A440992FA
:102B2C009AF80030002B00F0A28000234FF0FF3207
:102B3C00CDE905230AF1010A049307938DF853306C
:102B4C001A935446052214F8011B584800F0F8FA61
:102B5C00049AD8B9D10644BF20238DF853301307FB
:102B6C0044BF2B238DF853309AF800302A2B15D004
:102B7C00544600204FF00A0C079A214611F8013BED
:102B8C00303B092B4ED9B0B1079214E0A0EB0803EF
:102B9C0009FA03F31343A2460493D2E7039B191DCE
:102BAC001B680391002BBBBF5B4242F002020793F0
:102BBC000793B8BF049223782E2B0CD163782A2B61
:102BCC0035D1039B02341A1D1B680392002BB8BF2E
:102BDC004FF0FF330593DFF8D8A00322504621783D
:102BEC0000F0AEFA40B14023A0EB0A0003FA00F06B
:102BFC00049B01340343049314F8011B06222D4853
:102C0C008DF8281000F09CFA00283FD02A4B1BBBF3
:102C1C00039B073323F0070308330393099B3B44BF
:102C2C00099367E70C4601200CFB0232A5E7002351
:102C3C004FF00A0C194601340593204610F8012B6D
:102C4C00303A092A03D9002BC5D00591C3E70446B5
:102C5C0001230CFB0121F0E703AB00932A4630461D
:102C6C00164B04A9AFF300800746781CD6D16B6EC7
:102C7C00D90705D4AB899A0502D4A86DFFF785FD59
:102C8C00AB895B063FF512AF099811E703AB0093D4
:102C9C002A463046094B04A900F082F8E4E700BF4D
:102CAC0080320008A032000860320008C0320008F0
:102CBC00C6320008CA32000800000000472A00088B
:102CCC002DE9F047164699468A680B6907469342E8
:102CDC00B8BF1346336091F843200C46DDF82080D2
:102CEC000AB1013333602368990642BF336802335B
:102CFC003360256815F0060506D104F1190AE3685E
:102D0C0032689B1AAB4228DC94F84320131E2268CD
:102D1C0018BF012392062DD44946384604F14302CC
:102D2C00C047013020D02368E56803F00603042B6C
:102D3C0018BF002532684FF00006A36808BFAD1A13
:102D4C00226908BF25EAE5759342C4BF9B1AED18AA
:102D5C001A34B5421AD1002008E0012352464946E4
:102D6C003846C047013003D14FF0FF30BDE8F08743
:102D7C000135C4E73020E11881F843005A1C94F85F
:102D8C0045102244023382F84310C5E70123224642
:102D9C0049463846C0470130E6D00136D9E7000035
:102DAC002DE9FF470F7E9146782F80460C469A46B8
:102DBC000C9D01F1430207D8622F0AD8002F00F0B6
:102DCC00D980582F00F0A48004F1420584F8427099
:102DDC003AE0A7F16303152BF6D801A151F823F0C3
:102DEC00452E0008592E0008D52D0008D52D0008B9
:102DFC00D52D0008D52D0008592E0008D52D00081A
:102E0C00D52D0008D52D0008D52D0008672F0008FA
:102E1C00892E0008492F0008D52D0008D52D000853
:102E2C00892F0008D52D0008892E0008D52D000803
:102E3C00D52D0008512F00082B681A1D1B682A601D
:102E4C0004F1420584F842300123A4E0206829688B
:102E5C00060601F104030AD50E682B60002E03DA76
:102E6C002D23764284F843300A235E4819E00E681D
:102E7C0010F0400F2B6018BF36B2EFE72B682068BC
:102E8C00191D2960010601D51E6802E04606FBD516
:102E9C001E886F2F0CBF08230A235248002184F888
:102EAC0043106568002DA8BF2168A560A4BF21F060
:102EBC00040121600EB9002D4DD01546B6FBF3F17F
:102ECC0003FB1167C75D05F8017D3746BB420E4613
:102EDC00F4D9082B0BD12368DE0708D52369616868
:102EEC009942DEBF302305F8013C05F1FF35521B3A
:102EFC0022614B4621464046CDF800A003AAFFF7BD
:102F0C00DFFE01304CD14FF0FF3004B0BDE8F0874C
:102F1C00344881F845702968236851F8046B29609E
:102F2C001D0614D5DF0744BF43F0200323601EB9F0
:102F3C00236823F0200323601023AFE7236843F0BA
:102F4C00200323607823284884F84530E3E75906AA
:102F5C0048BFB6B2E6E71546BBE72B682668181DD6
:102F6C006169286035061B6801D5196002E070069E
:102F7C00FBD51980002315462361BAE72B68002185
:102F8C001A1D2A601D686268284600F0D9F808B13D
:102F9C00401B606063682361002384F84330A8E71A
:102FAC002A46494640462369D0470130ABD02368B6
:102FBC009B0713D4E068039B9842B8BF1846A4E75C
:102FCC000123324649464046D04701309BD001355B
:102FDC00E36803995B1AAB42F2DCEBE7002504F1E2
:102FEC001906F5E7D1320008E232000838B50023A3
:102FFC00054D044608462B60FDF708FA431C02D128
:10300C002B6803B1236038BDF00E002010B50C46C0
:10301C00B1F90E1000F0AEF80028ABBF636DA389B8
:10302C001B1823F48053ACBF6365A38110BD2DE93D
:10303C00F0411F468B890546DB050C46164605D527
:10304C0002230022B1F90E1000F068F8A389324671
:10305C0023F48053A38128463B46B4F90E10BDE8F7
:10306C00F04100F017B810B50C46B1F90E1000F095
:10307C0055F8431CA38915BF606523F4805343F4B2
:10308C008053A38118BFA38110BDB1F90E1000F0BD
:10309C0013B8000038B50446084611460022054D09
:1030AC002A601A46FDF744FE431C02D12B6803B17B
:1030BC00236038BDF00E002038B50023054D0446C2
:1030CC0008462B60FDF771F9431C02D12B6803B144
:1030DC00236038BDF00E002038B50023064D0446A1
:1030EC00084611462B60FDF76BF9431C02D12B6887
:1030FC0003B1236038BD00BFF00E002038B50023AB
:10310C00054D044608462B60FDF769F9431C02D1B6
:10311C002B6803B1236038BDF00E002038B504468F
:10312C00084611460022054D2A601A46FDF761F942
:10313C00431C02D12B6803B1236038BDF00E002074
:10314C00034610B5C9B202449342184601D100207F
:10315C0003E0047801338C42F6D110BD0148FFF72F
:10316C0013BB00BFE40E00200148FFF70EBB00BFED
:10317C00E40E002038B50446084611460022054DE1
:10318C002A601A46FDF7F4F8431C02D12B6803B1F0
:10319C00236038BDF00E0020F8B500BFF8BC08BCA9
:1031AC009E467047F8B500BFF8BC08BC9E467047F9
:1031BC0048617264204661756C740000257328495F
:1031CC004E495429203A2025642D25700A00000010
:1031DC002573203A2025640A00000000010000003D
:1031EC0002000000030000000400000005000000C5
:1031FC0006000000070000000800000009000000A5
:10320C000A000000496E6974696174696E672E2E3C
:10321C002E2E00000000000000000000010203043C
:10322C000607080900000000010203047461736BB7
:10323C00310000007461736B32000000020304055E
:10324C00060708090A0B0C0D0E0F101001020000E6
:10325C0050000020000000000000000000000000F2
:10326C000000000000000000000000000000000052
:10327C000000000000000000000000000000000042
:10328C000000000000000000000000000000000032
:10329C000000000000000000000000000000000022
:1032AC000000000000000000000000000000000012
:1032BC0000000000232D302B2000686C4C0065664C
:1032CC00674546470030313233343536373839416B
:1032DC004243444546003031323334353637383981
:0832EC00616263646566000085
:0432F400310100089C
:0432F8000D010008BC
:1032FC000024F400FFFFFFFFF50600086D0700082F
:10330C00490A0008B50A0008210B00088D0B0008BB
:10331C00D50B0008310C0008650C00087D0C00086A
:10332C00950C0008F50C0008210A0008910900080A
:10333C00B909000810000000010000005000002036
:10334C000000000080320008A03200086032000843
:10335C000000000000000000000000000000000061
:10336C000000000000000000000000000000000051
:10337C000000000000000000000000000000000041
:10338C000000000000000000000000000000000031
:10339C000000000000000000000000000000000021
:04000005080004915A
:00000001FF
